:020000040800F2
:1000000000000120410D0008810C0008890C000847
:10001000910C0008990C0008A10C000800000000D9
:10002000000000000000000000000000A90C000813
:10003000B70C000800000000C50C0008D30C000835
:10004000910D0008910D0008910D0008910D000818
:10005000910D0008910D0008910D0008910D000808
:10006000910D0008910D0008910D0008910D0008F8
:10007000910D0008910D0008910D0008910D0008E8
:10008000910D0008910D0008E10C0008000000002F
:10009000000000000000000000000000910D0008BA
:1000A000910D0008910D0008910D0008910D0008B8
:1000B000910D0008910D0008910D0008910D0008A8
:1000C000910D0008910D0008910D0008910D000898
:1000D000910D0008910D0008910D0008000000002E
:1000E000910D0008910D0008910D0008000000001E
:1000F000000000000000000000000000910D00085A
:1001000000000000910D0008910D0008910D0008FD
:1001100000000000000000000000000000000000DF
:10012000F50C0008910D0008910D0008910D0008D4
:10013000910D000800000000000000000000000019
:10014000000000000000000000000000090D000891
:10015000910D0008910D0008910D0008910D000807
:10016000910D0008910D0008000000000000000043
:10017000000000000000000000000000000000007F
:1001800000000000910D00080000000000000000C9
:04019000910D0008C5
:1001940010B5054C237833B9044B13B10448AFF3BD
:1001A40000800123237010BD1C010020000000000A
:1001B400F07B000808B5034B1BB103490348AFF3B8
:1001C400008008BD0000000020010020F07B000832
:1001D40053B94AB9002908BF00281CBF4FF0FF31AA
:1001E4004FF0FF3000F088B9ADF1080C6DE904CE92
:1001F40000F006F8DDF804E0DDE9022304B07047FE
:100204002DE9F047089D8E4604468846002B4AD1C6
:100214008A42174662D9B2FA82F64EB1C6F1200379
:1002240001FA06F820FA03F3B74043EA0808B44099
:100234004FEA174E1FFA87FCB8FBFEF1230C0EFBA6
:10024400118843EA084301FB0CF29A4209D9FB18CE
:1002540001F1FF3080F0EA809A4240F2E7800239EF
:100264003B449A1AA3B2B2FBFEF00EFB102243EAFF
:10027400024300FB0CFC9C4509D9FB1800F1FF323A
:1002840080F0D6809C4540F2D3803B44023840EA5B
:100294000140A3EB0C0300211DB1F3400022C5E98A
:1002A4000032BDE8F0878B4205D90DB1C5E90001E4
:1002B40000210846F5E7B3FA83F1002946D17345D6
:1002C40002D3824200F20581841A6EEB03020120FC
:1002D4009046002DE5D0C5E90048E2E7002A00F089
:1002E4009080B2FA82F6002E40F0A4808A1A030CA1
:1002F4004FEA174E80B2BCB20121B2FBFEFC0EFBEA
:100304001C2243EA024304FB0CF29A4207D9FB186D
:100314000CF1FF3802D29A4200F2E080C4469B1AE4
:10032400B3FBFEF20EFB123340EA034302FB04F478
:100334009C4207D9FB1802F1FF3002D29C4200F222
:10034400CA8002461B1B42EA0C40A5E7C1F1200605
:100354008B4022FA06F71F430EFA01F420FA06F343
:100364002EFA06FE4FEA1749234300FA01F81FFA52
:1003740087FCBEFBF9F01C0C09FB10EE44EA0E44AA
:1003840000FB0CFEA64502FA01F209D93C1900F162
:10039400FF3A80F09C80A64540F2998002383C44A4
:1003A400A4EB0E041FFA83FEB4FBF9F309FB134418
:1003B4004EEA044403FB0CFCA44508D93C1903F1A0
:1003C400FF3E80F08280A4457FD9023B3C4443EA4F
:1003D4000040A4EB0C04A0FB02EC64457346E14628
:1003E40062D35FD05DB1B8EB030264EB090404FA95
:1003F40006F622FA01F31E43CC40C5E9006400214D
:100404004FE7B1FBF2FC010C41EA0E4180B240EA35
:1004140001423B4638463C46B846BE462026B1FB20
:10042400F7F1A2EB080241EA0C4166E7014618E73E
:1004340010462CE7C6F120022EFA02F3B740B14071
:1004440020FA02F24FEA174E0A43B3FBFEF8BCB29D
:100454000EFB1833110C41EA034108FB04F9B040C8
:1004640089454FEA104380B23ED9791808F1FF3C20
:1004740001D289451FD8A1EB0901B1FBFEF909FBA3
:1004840004F80EFB191192B242EA0142424529D204
:10049400BA1809F1FF31C4D24245C2D2A9F102010E
:1004A4003A44BEE7F0459DD2BEEB02036CEB070C69
:1004B4000138E14696E7A7EB09094944A8F1020C83
:1004C400B1FBFEF909FB04F8DBE773467FE750460E
:1004D40066E70846FDE63B44023A33E7ACF1020C1A
:1004E4003B441CE749469CE7A1EB0901C446B1FB28
:1004F400FEF909FB04F8C4E7704700BF80B483B079
:1005040000AF78607B681B68054A934202D1054BB3
:1005140001221A7000BF0C37BD465DF8047B70479A
:1005240000200140E801002080B582B000AF4FF404
:100534000071324801F0D8FF0346002B0CBF0123A1
:100544000023DBB2FB7108212C4801F0CDFF0346E8
:10055400002B0CBF01230023DBB2BB711021274801
:1005640001F0C2FF0346002B0CBF01230023DBB2C2
:100574007B714FF40041224801F0B6FF0346002B83
:100584000CBF01230023DBB23B71FB79002B01D0AC
:1005940000232FE0FB79002B04D03B79002B01D002
:1005A400012327E03B79002B01D0022322E03B7991
:1005B400002B04D0BB79002B01D003231AE0BB79B4
:1005C400002B01D0042315E0BB79002B04D07B79E8
:1005D400002B01D005230DE07B79002B01D00623ED
:1005E40008E07B79002B04D0FB79002B01D0072392
:1005F40000E00F2318460837BD4680BD00040240C2
:100604000000024080B584B000AF3B1D00221A6098
:100614005A60C3F807204FF480517E4801F064FF0C
:100624000346002B01D1042300E00023BA8812B250
:100634001BB213431BB29BB2BB804FF400517548ED
:1006440001F052FF0346002B01D1082300E00023F0
:10065400BA8812B21BB213431BB29BB2BB804FF4D5
:1006640080416C4801F040FF0346002B0CBF01237E
:100674000023DBB21946BB881AB20BB213431BB278
:100684009BB2BB804FF40041624801F02DFF03464A
:10069400002B01D1022300E00023BA8812B21BB25E
:1006A40013431BB29BB2BB804FF480715A4801F0D4
:1006B4001BFF0346002B01D1102300E00023BA885E
:1006C40012B21BB213431BB29BB2BB804FF4007136
:1006D400514801F009FF0346002B01D1402300E0FB
:1006E4000023BA8812B21BB213431BB29BB2BB8065
:1006F4004FF48061484801F0F7FE0346002B01D116
:10070400202300E00023BA8812B21BB213431BB2A9
:100714009BB2BB8020213F4801F0E6FE0346002B3C
:1007240002D14FF4807300E00023BA8812B21BB2E6
:1007340013431BB29BB2BB804021364801F0D4FE68
:100744000346002B02D14FF4806300E00023BA88F3
:1007540012B21BB213431BB29BB2BB8080212D4843
:1007640001F0C2FE0346002B02D14FF4007300E0F7
:100774000023BA8812B21BB213431BB29BB2BB80D4
:100784004FF48071234801F0AFFE0346002B01D1E2
:10079400802300E00023BA8812B21BB213431BB2B9
:1007A4009BB2BB8010211C4801F09EFE0346002B27
:1007B40002D14FF4006300E00023BA8812B21BB2E6
:1007C40013431BB29BB2BB80FFF7AEFE0346BB7163
:1007D400124B1B889BB21BB2A7F807300F4B5B88E8
:1007E4009BB21BB2A7F809300C4B9B889BB21BB27F
:1007F400A7F80B30094BDB889BB21BB2A7F80D306E
:100804003B1D0B221946064805F0F4F900BF1037CA
:10081400BD4680BD0004024000000240E00100200B
:10082400F401002080B500AF00F0B2FA00F014F833
:1008340000F01CF900F0FAF800F07CF806F07CFDFA
:1008440004220349034800F08DFCFFF7DBFEFCE7BC
:10085400E00100203801002080B594B000AF07F11A
:10086400200330220021184607F094F907F10C0305
:1008740000221A605A609A60DA601A610023BB6031
:100884002A4B1B6C294A43F080531364274B1B6C7F
:1008940003F08053BB60BB6800237B60244B1B6860
:1008A40023F44043224A43F400431360204B1B6863
:1008B40003F440437B607B6803233B624FF4803343
:1008C4007B620123FB6210233B630223BB634FF46F
:1008D4008003FB630F233B6490237B640223BB648C
:1008E4000523FB6407F12003184603F04FF8034681
:1008F400002B01D000F014F90F23FB6000233B61AF
:1009040000237B610023BB610023FB6107F10C031F
:100914000021184603F0B2FA0346002B01D000F080
:10092400FFF800BF5037BD4680BD00BF003802400D
:100934000070004080B584B000AF3B4600221A60CE
:100944005A609A60DA60364B364A1A60344B002299
:100954005A60334B00229A60314B01221A61304BAA
:1009640001221A762E4B002283F820202C4B0022E1
:10097400DA622B4B2C4A9A62294B0022DA60284B0C
:100984000422DA61264B012283F83020244B002212
:100994005A61234800F092FA0346002B01D000F07C
:1009A400BFF800233B6001237B600723BB603B4609
:1009B40019461B4800F0E8FC0346002B01D000F068
:1009C400AFF801233B6002237B603B461946144881
:1009D40000F0DAFC0346002B01D000F0A1F802235A
:1009E4003B6003237B603B4619460D4800F0CCFC7A
:1009F4000346002B01D000F093F803233B6004234B
:100A04007B603B461946064800F0BEFC0346002BBB
:100A140001D000F085F800BF1037BD4680BD00BF8F
:100A240038010020002001400100000F80B582B091
:100A340000AF00237B600C4B1B6B0B4A43F4800319
:100A44001363094B1B6B03F480037B607B680022F8
:100A54000021382001F01DF8382001F036F800BFDD
:100A64000837BD4680BD00BF0038024080B588B05D
:100A740000AF07F10C0300221A605A609A60DA6032
:100A84001A610023BB60234B1B6B224A43F0800393
:100A94001363204B1B6B03F08003BB60BB68002314
:100AA4007B601C4B1B6B1B4A43F001031363194B04
:100AB4001B6B03F001037B607B6800233B60154BD9
:100AC4001B6B144A43F002031363124B1B6B03F0BA
:100AD40002033B603B6848F21073FB6000233B61F8
:100AE40001237B6107F10C0319460B4801F078FBE5
:100AF4004FF2F833FB6000233B6101237B6107F174
:100B04000C031946054801F06BFB00BF2037BD46B6
:100B140080BD00BF003802400000024000040240D3
:100B240080B400AF72B600BF00BFFDE780B483B0ED
:100B340000AF00237B60104B5B6C0F4A43F480438F
:100B440053640D4B5B6C03F480437B607B68002330
:100B54003B60094B1B6C084A43F080531364064BFB
:100B64001B6C03F080533B603B6800BF0C37BD46F1
:100B74005DF8047B704700BF0038024080B58AB03E
:100B840000AF786007F1140300221A605A609A607B
:100B9400DA601A617B681B68334A934260D1002390
:100BA4003B61324B5B6C314A43F4807353642F4B8B
:100BB4005B6C03F480733B613B690023FB602B4B4C
:100BC4001B6B2A4A43F001031363284B1B6B03F08E
:100BD4000103FB60FB680F237B610323BB610023DC
:100BE400FB6107F114031946214801F0F9FA214B7E
:100BF400214A1A601F4B00225A601E4B00229A6041
:100C04001C4B0022DA601B4B4FF480621A61194BB3
:100C14004FF400625A61174B4FF400529A61154B1E
:100C24004FF48072DA61134B4FF400321A62114BA5
:100C340000225A620F4800F063FF0346002B01D0E4
:100C4400FFF76EFF7B680B4A9A630A4A7B689363DB
:100C540000220021122000F01CFF122000F035FFBA
:100C640000BF2837BD4680BD002001400038024047
:100C740000000240800100201064024080B400AFF4
:100C840000BFFDE780B400AF00BFFDE780B400AF54
:100C940000BFFDE780B400AF00BFFDE780B400AF44
:100CA40000BFFDE780B400AF00BFBD465DF8047B24
:100CB400704780B400AF00BFBD465DF8047B704749
:100CC40080B400AF00BFBD465DF8047B704780B5BB
:100CD40000AF00F0AFF800BF80BD000080B500AFEA
:100CE400024800F02EF900BF80BD00BF380100208B
:100CF40080B500AF024801F009F800BF80BD00BF15
:100D04008001002080B500AF024801F049FD00BF1A
:100D140080BD00BFD006002080B400AF064BD3F8DE
:100D24008830054A43F47003C2F8883000BFBD46DA
:100D34005DF8047B704700BF00ED00E0DFF834D0BD
:100D4400FFF7EAFF0C480D490D4A002302E0D4588E
:100D5400C4500433C4188C42F9D30A4A0A4C002301
:100D640001E013600432A242FBD306F01BFFFFF73D
:100D740059FD704700000120000000201C010020E4
:100D8400607C00081C010020C80B0020FEE7000066
:100D940080B500AF0E4B1B680D4A43F4007313601B
:100DA4000B4B1B680A4A43F480631360084B1B68AF
:100DB400074A43F480731360032000F05FFE0F20A2
:100DC40000F008F8FFF7B2FE0023184680BD00BF0C
:100DD400003C024080B582B000AF7860124B1A68C4
:100DE400124B1B7819464FF47A73B3FBF1F3B2FB41
:100DF400F3F3184600F077FE0346002B01D00123DD
:100E04000EE07B680F2B0AD8002279684FF0FF3080
:100E140000F03FFE064A7B681360002300E00123D4
:100E240018460837BD4680BD000000200800002099
:100E34000400002080B400AF064B1B781A46064B12
:100E44001B681344044A136000BFBD465DF8047B6D
:100E5400704700BF08000020EC01002080B400AF00
:100E6400034B1B681846BD465DF8047B704700BF02
:100E7400EC01002080B584B000AF7860FFF7EEFF8E
:100E8400B8607B68FB60FB68B3F1FF3F05D00A4B99
:100E94001B781A46FB681344FB6000BFFFF7DEFFB4
:100EA4000246BB68D31AFA689A42F7D800BF00BF5B
:100EB4001037BD4680BD00BF0800002080B584B057
:100EC40000AF78600023FB737B68002B01D1012302
:100ED40033E07B681B6C002B09D17868FFF74EFE6A
:100EE4007B6800225A647B68002283F83C207B687C
:100EF4001B6C03F01003002B18D17B681B6C23F4CC
:100F0400885323F0020343F002027B681A64786872
:100F140000F05CFB7B6800225A647B681B6C23F046
:100F2400030343F001027B681A6401E00123FB73AD
:100F34007B68002283F83C20FB7B18461037BD46B3
:100F440080BD80B586B000AF786000237B6100234C
:100F54003B617B681B681B68FB607B681B685B6884
:100F6400BB60FB6803F002037B61BB6803F02003F2
:100F74003B617B69002B49D03B69002B46D07B68E1
:100F84001B6C03F01003002B05D17B681B6C43F42E
:100F940000727B681A647B681B689B6803F040538B
:100FA400002B2BD17B681B7E002B27D17B681B6811
:100FB400DB6A03F47003002B06D07B681B689B6814
:100FC40003F48063002B19D17B681B685A687B6823
:100FD4001B6822F020025A607B681B6C23F4807229
:100FE4007B681A647B681B6C03F48053002B05D167
:100FF4007B681B6C43F001027B681A647868FFF716
:101004007DFA7B681B686FF012021A60FB6803F0BC
:1010140004037B61BB6803F080033B617B69002BA5
:1010240057D03B69002B54D07B681B6C03F0100332
:10103400002B05D17B681B6C43F400527B681A6457
:101044007B681B689B6803F44013002B39D17B68D1
:101054001B689B6B03F44013002B06D07B681B6852
:101064009B6803F48063002B2BD17B681B685B684F
:1010740003F48063002B24D17B681B689B6803F016
:101084004053002B1DD17B681B7E002B19D17B683C
:101094001B685A687B681B6822F080025A607B6870
:1010A4001B6C23F480527B681A647B681B6C03F40A
:1010B4008073002B05D17B681B6C43F001027B68B5
:1010C4001A64786800F000FC7B681B686FF00C02FF
:1010D4001A60FB6803F001037B61BB6803F0400303
:1010E4003B617B69002B17D03B69002B14D07B68D4
:1010F4001B681B6803F00103012B0DD17B681B6C7B
:1011040043F480327B681A64786800F029F97B68BC
:101114001B686FF001021A60FB6803F020037B6117
:10112400BB6803F080633B617B69002B15D03B698E
:10113400002B12D07B685B6C43F002027B685A641C
:101144007B681B686FF020021A60786800F012F95F
:101154007B681B686FF020021A6000BF1837BD4619
:1011640080BD000080B588B000AFF860B9607A60D7
:1011740000237B610023FB77FB6893F83C30012B51
:1011840001D10223D0E0FB68012283F83C20FB68F4
:101194001B689B6803F00103012B18D0FB681B68D4
:1011A4009A68FB681B6842F001029A60604B1B68F6
:1011B400604AA2FB03239A0C13465B0013447B6131
:1011C40002E07B69013B7B617B69002BF9D1FB6801
:1011D4001B689B6803F48073B3F5807F07D1FB68B9
:1011E4001B689A68FB681B6822F480729A60FB682B
:1011F4001B689B6803F00103012B40F08880FB68A7
:101204001B6C23F4E06323F0010343F48072FB6856
:101214001A64FB681B685B6803F48063002B07D0C7
:10122400FB681B6C23F4405343F48052FB681A643C
:10123400FB681B6C03F48053B3F5805F06D1FB6835
:101244005B6C23F00602FB685A6402E0FB68002230
:101254005A64FB68002283F83C20374BBB61FB686F
:101264009B6B364ADA63FB689B6B354A1A64FB68EE
:101274009B6B344ADA64FB681B686FF022021A60C5
:10128400FB681B685A68FB681B6842F080625A60FE
:10129400FB681B689A68FB681B6842F480729A605A
:1012A400FB68986BFB681B684C331946BA687B680B
:1012B40000F0D4FC0346FB77BB695B6803F01F03B3
:1012C400002B0FD1FB681B689B6803F04053002B75
:1012D40029D1FB681B689A68FB681B6842F080424E
:1012E4009A6020E0FB681B68174A93421BD1FB6895
:1012F4001B689B6803F04053002B14D1FB681B68E8
:101304009A68FB681B6842F080429A600BE0FB68B5
:101314001B6C43F01002FB681A64FB685B6C43F0BF
:101324000102FB685A64FB7F18462037BD4680BD26
:101334000000002083DE1B4300230140C91700087E
:10134400831800089F1800080020014080B483B06F
:1013540000AF786000BF0C37BD465DF8047B704772
:1013640080B483B000AF786000BF0C37BD465DF831
:10137400047B704780B483B000AF786000BF0C3743
:10138400BD465DF8047B704780B485B000AF7860DB
:1013940039600023BB607B6893F83C30012B01D19A
:1013A400022305E17B68012283F83C203B681B682B
:1013B400092B25D97B681B68D9683B681B689BB2DD
:1013C4001A4613465B0013441E3B072202FA03F33A
:1013D400DA437B681B680A40DA607B681B68D9685B
:1013E4003B689A683B681B689BB2184603465B00DF
:1013F40003441E3B9A407B681B680A43DA6022E080
:101404007B681B6819693B681B689BB21A461346C4
:101414005B001344072202FA03F3DA437B681B6878
:101424000A401A617B681B6819693B689A683B68C3
:101434001B689BB2184603465B0003449A407B68D2
:101444001B680A431A613B685B68062B24D87B68D7
:101454001B68596B3B685A6813469B001344053B51
:101464001F2202FA03F3DA437B681B680A405A63BB
:101474007B681B68596B3B681B689BB218463B68CA
:101484005A6813469B001344053B00FA03F27B6839
:101494001B680A435A634CE03B685B680C2B24D8F6
:1014A4007B681B68196B3B685A6813469B0013449E
:1014B400233B1F2202FA03F3DA437B681B680A40CA
:1014C4001A637B681B68196B3B681B689BB21846E0
:1014D4003B685A6813469B001344233B00FA03F20B
:1014E4007B681B680A431A6323E07B681B68D96A1C
:1014F4003B685A6813469B001344413B1F2202FA7F
:1015040003F3DA437B681B680A40DA627B681B6872
:10151400D96A3B681B689BB218463B685A681346F5
:101524009B001344413B00FA03F27B681B680A43A7
:10153400DA62224BFB607B681B68214A934209D123
:101544003B681B68122B05D1FB685B6843F480027F
:10155400FB685A607B681B68194A934223D13B6835
:101564001B68102B03D03B681B68112B1BD1FB6835
:101574005B6843F40002FB685A603B681B68102BED
:1015840011D1104B1B68104AA2FB03239A0C13467B
:101594009B0013445B00BB6002E0BB68013BBB6083
:1015A400BB68002BF9D17B68002283F83C20002320
:1015B40018461437BD465DF8047B7047002301408C
:1015C400002001400000002083DE1B4380B485B06E
:1015D40000AF7860794BFB60FB685B6823F44032B2
:1015E400FB685A60FB685A687B685B681A43FB684F
:1015F4005A607B681B685A687B681B6822F4807297
:101604005A607B681B6859687B681B691A027B688F
:101614001B680A435A607B681B685A687B681B68AE
:1016240022F040725A607B681B6859687B689A682C
:101634007B681B680A435A607B681B689A687B68EE
:101644001B6822F400629A607B681B6899687B6857
:10165400DA687B681B680A439A607B689B6A584A0D
:10166400934222D07B681B689A687B681B6822F0CF
:1016740070629A607B681B6899687B689A6A7B6869
:101684001B680A439A607B681B689A687B681B68BE
:1016940022F040529A607B681B6899687B68DA6A1A
:1016A4007B681B680A439A600FE07B681B689A6832
:1016B4007B681B6822F070629A607B681B689A687A
:1016C4007B681B6822F040529A607B681B689A68AA
:1016D4007B681B6822F002029A607B681B68996829
:1016E4007B681B7E5A007B681B680A439A607B6890
:1016F40093F82030002B1BD07B681B685A687B68EA
:101704001B6842F400625A607B681B685A687B68F5
:101714001B6822F460425A607B681B6859687B68C6
:101724005B6A013B5A037B681B680A435A6007E003
:101734007B681B685A687B681B6822F400625A60E5
:101744007B681B68DA6A7B681B6822F47002DA62C1
:101754007B681B68D96A7B68DB69013B1A057B6877
:101764001B680A43DA627B681B689A687B681B689B
:1017740022F400729A607B681B6899687B6893F80E
:1017840030305A027B681B680A439A607B681B6886
:101794009A687B681B6822F480629A607B681B6885
:1017A40099687B685B699A027B681B680A439A6044
:1017B40000BF1437BD465DF8047B70470023014029
:1017C4000100000F80B584B000AF78607B689B6B2C
:1017D400FB60FB681B6C03F05003002B3CD1FB68DF
:1017E4001B6C43F40072FB681A64FB681B689B68FB
:1017F40003F04053002B2BD1FB681B7E002B27D119
:10180400FB681B68DB6A03F47003002B06D0FB68DB
:101814001B689B6803F48063002B19D1FB681B6869
:101824005A68FB681B6822F020025A60FB681B6C34
:1018340023F48072FB681A64FB681B6C03F4805306
:10184400002B05D1FB681B6C43F00102FB681A6492
:10185400F868FEF753FE0EE0FB681B6C03F0100300
:10186400002B03D0F868FFF785FD04E0FB689B6B51
:10187400DB6C7868984700BF1037BD4680BD80B5E3
:1018840084B000AF78607B689B6BFB60F868FFF7FF
:101894005DFD00BF1037BD4680BD80B584B000AF8C
:1018A40078607B689B6BFB60FB6840221A64FB6872
:1018B4005B6C43F00402FB685A64F868FFF75AFD56
:1018C40000BF1037BD4680BD80B483B000AF7860E0
:1018D40000BF0C37BD465DF8047B704780B485B00B
:1018E40000AF78607B6803F00703FB600C4BDB6898
:1018F400BB60BA684FF6FF031340BB60FB681A0273
:10190400BB68134343F0BF6343F40033BB60044A32
:10191400BB68D36000BF1437BD465DF8047B7047D5
:1019240000ED00E080B400AF044BDB681B0A03F059
:1019340007031846BD465DF8047B704700ED00E0E0
:1019440080B483B000AF0346FB7197F90730002BD6
:101954000BDBFB7903F01F02074997F907305B099A
:10196400012000FA02F241F8232000BF0C37BD46E3
:101974005DF8047B704700BF00E100E080B483B0F1
:1019840000AF03463960FB7197F90730002B0ADB7F
:101994003B68DAB20C4997F907301201D2B20B4412
:1019A40083F800230AE03B68DAB20849FB7903F0C4
:1019B4000F03043B1201D2B20B441A7600BF0C375A
:1019C400BD465DF8047B704700E100E000ED00E0F7
:1019D40080B489B000AFF860B9607A60FB6803F046
:1019E4000703FB61FB69C3F10703042B28BF04232E
:1019F400BB61FB690433062B02D9FB69033B00E09E
:101A040000237B614FF0FF32BB6902FA03F3DA4330
:101A1400BB681A407B699A404FF0FF317B6901FA39
:101A240003F3D9437B680B40134318462437BD4660
:101A34005DF8047B7047000080B582B000AF786029
:101A44007B68013BB3F1807F01D301230FE00A4A95
:101A54007B68013B53600F214FF0FF30FFF78EFF8F
:101A6400054B00229A60044B07221A600023184693
:101A74000837BD4680BD00BF10E000E080B582B0ED
:101A840000AF78607868FFF729FF00BF0837BD46CC
:101A940080BD80B586B000AF0346B9607A60FB7341
:101AA40000237B61FFF73EFF78617A68B968786943
:101AB400FFF78EFF024697F90F3011461846FFF7DD
:101AC4005DFF00BF1837BD4680BD80B582B000AF52
:101AD4000346FB7197F907301846FFF731FF00BF43
:101AE4000837BD4680BD80B582B000AF78607868A5
:101AF400FFF7A2FF034618460837BD4680BD000025
:101B040080B586B000AF786000237B61FFF7A6F94B
:101B140038617B68002B01D1012399E07B680222A4
:101B240083F835207B68002283F834207B681B68A7
:101B34001A687B681B6822F001021A600FE0FFF745
:101B44008DF902463B69D31A052B08D97B682022FC
:101B54005A657B68032283F83520032378E07B6889
:101B64001B681B6803F00103002BE8D17B681B682A
:101B74001B687B617A69384B13407B617B685A68C8
:101B84007B689B681A437B68DB681A437B681B6924
:101B94001A437B685B691A437B689B691A437B68B9
:101BA400DB691A437B681B6A13437A6913437B61BD
:101BB4007B685B6A042B07D17B68DA6A7B681B6BE2
:101BC40013437A6913437B617B681B687A691A60E3
:101BD4007B681B685B697B617B6923F007037B611E
:101BE4007B685B6A7A6913437B617B685B6A042B5D
:101BF40017D17B689B6A7A6913437B617B68DB6AD4
:101C0400002B0ED0786800F06FFA0346002B08D042
:101C14007B6840225A657B68012283F835200123C2
:101C240016E07B681B687A695A61786800F026FAC6
:101C34000346FB607B68DB6D3F229A40FB689A6039
:101C44007B6800225A657B68012283F835200023D3
:101C540018461837BD4680BD3F8010F080B586B069
:101C640000AFF860B9607A603B600023FB75FB68E5
:101C74009B6D3B61FB6893F83430012B01D1022347
:101C840040E0FB68012283F83420FB6893F8353088
:101C9400DBB2012B2FD1FB68022283F83520FB68CD
:101CA40000225A653B687A68B968F86800F0B8F9A8
:101CB400FB68DB6D3F229A403B699A60FB681B68B6
:101CC4001A68FB681B6842F016021A60FB681B6CFA
:101CD400002B07D0FB681B681A68FB681B6842F07E
:101CE40008021A60FB681B681A68FB681B6842F0EC
:101CF40001021A6005E0FB68002283F83420022305
:101D0400FB75FB7D18461837BD4680BD80B586B08F
:101D140000AF78600023BB608E4B1B688E4AA2FB29
:101D240003239B0A7B617B689B6D3B613B691B685A
:101D3400FB607B68DB6D08229A40FB681340002B34
:101D44001AD07B681B681B6803F00403002B13D0B4
:101D54007B681B681A687B681B6822F004021A609F
:101D64007B68DB6D08229A403B699A607B685B6DF7
:101D740043F001027B685A657B68DB6D01229A405F
:101D8400FB681340002B12D07B681B685B6903F06F
:101D94008003002B0BD07B68DB6D01229A403B69EA
:101DA4009A607B685B6D43F002027B685A657B68CE
:101DB400DB6D04229A40FB681340002B12D07B6831
:101DC4001B681B6803F00203002B0BD07B68DB6DE0
:101DD40004229A403B699A607B685B6D43F004027D
:101DE4007B685A657B68DB6D10229A40FB68134060
:101DF400002B43D07B681B681B6803F00803002B8F
:101E04003CD07B68DB6D10229A403B699A607B680A
:101E14001B681B6803F48023002B18D07B681B68A5
:101E24001B6803F40023002B08D17B681B6C002B78
:101E340024D07B681B6C786898471FE07B689B6C98
:101E4400002B1BD07B689B6C7868984716E07B68F6
:101E54001B681B6803F48073002B07D17B681B6825
:101E64001A687B681B6822F008021A607B681B6C86
:101E7400002B03D07B681B6C786898477B68DB6D0C
:101E840020229A40FB681340002B00F08F807B686F
:101E94001B681B6803F01003002B00F087807B682D
:101EA400DB6D20229A403B699A607B6893F8353059
:101EB400DBB2052B36D17B681B681A687B681B680C
:101EC40022F016021A607B681B685A697B681B68DB
:101ED40022F080025A617B681B6C002B03D17B6863
:101EE4009B6C002B07D07B681B681A687B681B6897
:101EF40022F008021A607B68DB6D3F229A403B693E
:101F04009A607B68012283F835207B68002283F87D
:101F140034207B681B6D002B7ED07B681B6D78683A
:101F2400984779E07B681B681B6803F48023002BC7
:101F34001DD07B681B681B6803F40023002B0DD1A4
:101F44007B685B6C002B31D07B685B6C786898474E
:101F54002CE000BF00000020B5814E1B7B68DB6BCA
:101F6400002B23D07B68DB6B786898471EE07B6886
:101F74001B681B6803F48073002B0FD17B681B68FC
:101F84001A687B681B6822F010021A607B680122C1
:101F940083F835207B68002283F834207B68DB6B70
:101FA400002B03D07B68DB6B786898477B685B6D9C
:101FB400002B32D07B685B6D03F00103002B22D031
:101FC4007B68052283F835207B681B681A687B6868
:101FD4001B6822F001021A60BB680133BB607A6996
:101FE4009A4207D37B681B681B6803F00103002B2C
:101FF400F2D100E000BF7B68012283F835207B68C2
:10200400002283F834207B68DB6C002B05D07B68CE
:10201400DB6C7868984700E000BF1837BD4680BD88
:1020240080B485B000AFF860B9607A603B60FB684B
:102034001B681A68FB681B6822F480221A60FB681C
:102044001B683A685A60FB689B68402B08D1FB68A0
:102054001B687A689A60FB681B68BA68DA6007E0F4
:10206400FB681B68BA689A60FB681B687A68DA6068
:1020740000BF1437BD465DF8047B704780B485B05B
:1020840000AF78607B681B68DBB2103B144AA2FB8C
:1020940003231B09FB60134AFB6813441B781A468D
:1020A4007B68DA65FB68032B09D97B681B6823F41A
:1020B4007F7323F003031A1D7B689A6507E07B682E
:1020C4001B6823F47F7323F003037A6893657B68AA
:1020D4009B6D18461437BD465DF8047B704700BFFE
:1020E400ABAAAAAA487C000880B485B000AF786087
:1020F4000023FB737B689B6ABB607B689B69002B36
:102104001FD1BB68032B56D801A252F823F000BF9D
:10211400252100083721000825210008BB210008DB
:102124007B68DB6A03F08073002B46D00123FB73CA
:1021340043E07B68DB6AB3F1C07F40D10123FB73CA
:102144003DE07B689B69B3F5005F21D1BB68032B3D
:1021540037D801A252F823F06D210008732100083A
:102164006D210008852100080123FB7330E07B68A2
:10217400DB6A03F08073002B25D00123FB7322E07C
:102184007B68DB6AB3F1C07F1FD10123FB731CE0C2
:10219400BB68022B03D9BB68032B03D018E00123CF
:1021A400FB7315E07B68DB6A03F08073002B0ED0B1
:1021B4000123FB730BE000BF0AE000BF08E000BF8F
:1021C40006E000BF04E000BF02E000BF00E000BF83
:1021D400FB7B18461437BD465DF8047B704700BF8F
:1021E40080B489B000AF7860396000237B6100233C
:1021F4003B610023BB610023FB6159E10122FB69C0
:1022040002FA03F37B613B681B687A6913403B6104
:102214003A697B699A4240F048813B685B6803F005
:102224000303012B05D03B685B6803F00303022B17
:1022340030D17B689B68BB61FB695B00032202FAB7
:1022440003F3DB43BA691340BB613B68DA68FB699B
:102254005B0002FA03F3BA691343BB617B68BA6992
:102264009A607B685B68BB610122FB6902FA03F335
:10227400DB43BA691340BB613B685B681B0903F02D
:102284000102FB6902FA03F3BA691343BB617B6879
:10229400BA695A603B685B6803F00303032B17D0E9
:1022A4007B68DB68BB61FB695B00032202FA03F312
:1022B400DB43BA691340BB613B689A68FB695B0006
:1022C40002FA03F3BA691343BB617B68BA69DA6043
:1022D4003B685B6803F00303022B23D1FB69DA0834
:1022E4007B68083253F82230BB61FB6903F00703B3
:1022F4009B000F2202FA03F3DB43BA691340BB616C
:102304003B681A69FB6903F007039B0002FA03F3B5
:10231400BA691343BB61FB69DA087B680832B9699F
:1023240043F822107B681B68BB61FB695B000322D6
:1023340002FA03F3DB43BA691340BB613B685B6891
:1023440003F00302FB695B0002FA03F3BA69134367
:10235400BB617B68BA691A603B685B6803F440330D
:10236400002B00F0A2800023FB60574B5B6C564AA5
:1023740043F480435364544B5B6C03F48043FB602D
:10238400FB68524AFB699B08023352F82330BB6155
:10239400FB6903F003039B000F2202FA03F3DB4300
:1023A400BA691340BB617B68494A934219D07B6880
:1023B400484A934213D07B68474A93420DD07B68C6
:1023C400464A934207D07B68454A934201D104238D
:1023D40008E0072306E0032304E0022302E00123CC
:1023E40000E00023FA6902F0030292009340BA6904
:1023F4001343BB613549FB699B080233BA6941F851
:102404002320384B9B68BB613B69DB43BA691340AB
:10241400BB613B685B6803F48013002B03D0BA698B
:102424003B691343BB612F4ABB6993602D4BDB6847
:10243400BB613B69DB43BA691340BB613B685B68C2
:1024440003F40013002B03D0BA693B691343BB6147
:10245400244ABB69D360234B5B68BB613B69DB43A4
:10246400BA691340BB613B685B6803F40033002B1B
:1024740003D0BA693B691343BB611A4ABB69536011
:10248400184B1B68BB613B69DB43BA691340BB61F2
:102494003B685B6803F48033002B03D0BA693B6963
:1024A4001343BB610F4ABB691360FB690133FB61D2
:1024B400FB690F2B7FF6A2AE00BF00BF2437BD46D9
:1024C4005DF8047B704700BF0038024000380140CB
:1024D400000002400004024000080240000C0240D8
:1024E40000100240003C014080B485B000AF786029
:1024F4000B467B807B681A697B881340002B02D0D3
:102504000123FB7301E00023FB73FB7B18461437A4
:10251400BD465DF8047B704780B586B002AF786035
:102524007B68002B01D1012301E17B681B68BB6040
:102534007B6893F89534DBB2002B06D17B680022CC
:1025440083F89424786805F02DF87B68032283F8D7
:102554009524BB68B3F1A04F02D17B6800229A7125
:102564007B681B68184601F058FF7B6818687B6815
:102574001A7C8DF8002004330ECB01F037FE03469D
:10258400002B05D07B68022283F895240123CEE03A
:102594007B681B680021184601F050FF0346002B9E
:1025A40005D07B68022283F895240123BFE0002331
:1025B400FB734AE0FA7B79681346DB0013449B0003
:1025C4000B44153301221A70FA7B79681346DB0039
:1025D40013449B000B441433FA7B1A70FA7BFB7B85
:1025E40098B279681346DB0013449B000B442E33E6
:1025F40002461A80FA7B79681346DB0013449B0079
:102604000B44183300221A70FA7B79681346DB00F6
:1026140013449B000B441C3300221A60FA7B796834
:102624001346DB0013449B000B44203300221A6042
:10263400FA7B79681346DB0013449B000B44243374
:1026440000221A60FB7B0133FB737B681B79FA7BE6
:102654009A42AFD30023FB7344E0FA7B79681346B4
:10266400DB0013449B000B4403F2552300221A7031
:10267400FA7B79681346DB0013449B000B4403F593
:102684001573FA7B1A70FA7B79681346DB001344DE
:102694009B000B4403F5167300221A70FA7B7968C9
:1026A4001346DB0013449B000B4403F5177300220D
:1026B4001A60FA7B79681346DB0013449B000B44D1
:1026C40003F5187300221A60FA7B79681346DB005D
:1026D40013449B000B4403F5197300221A60FB7B1F
:1026E4000133FB737B681B79FA7B9A42B5D37B6811
:1026F40018687B681A7C8DF8002004330ECB01F037
:10270400E9FE0346002B05D07B68022283F895245A
:1027140001230CE07B6800225A747B68012283F851
:1027240095247B681B68184602F033FF0023184683
:102734001037BD4680BD80B584B000AF78607B683B
:102744001B68FB607B6893F89434012B01D102234E
:1027540022E07B68012283F89424FB68DB6803F0A1
:102764004003002B09D07B685B7B012B05D1FB6800
:102774009B6B43F48032FB689A637B681B68184642
:1027840001F03AFE7B681B68184602F0E1FE7B68A4
:10279400002283F89424002318461037BD4680BDD8
:1027A40090B58DB000AF78607B681B683B623B6A74
:1027B400FB617B681B68184602F09FFF0346002BF1
:1027C40040F08C847B681B68184602F003FF0346C4
:1027D400002B00F08284FB6903F500639B681B0AED
:1027E400C3F30D027B68C3F8D4247B681B681846C6
:1027F40002F0F0FE034603F00203022B07D17B68CC
:102804001B685A697B681B6802F002025A617B6884
:102814001B68184602F0DEFE034603F01003102B7B
:1028240061D17B681B689A697B681B6822F010027F
:102834009A613B6A1B6ABB61BB6903F00F021346D2
:10284400DB0013449B0003F514737A6813440433C8
:102854007B61BB6903F4F013B3F5802F24D1BA690B
:1028640047F6F0731340002B35D07B69D968BB69F8
:102874001B099BB2C3F30A039BB21A46386A02F0DF
:1028840015FD7B69DA68BB691B09C3F30A031A44A3
:102894007B69DA607B695A69BB691B09C3F30A0364
:1028A4001A447B695A6116E0BB6903F4F013B3F56B
:1028B400402F10D17B6803F29C4308221946386AE2
:1028C40002F0F4FC7B695A69BB691B09C3F30A0370
:1028D4001A447B695A617B681B689A697B681B6828
:1028E40042F010029A617B681B68184602F072FE7F
:1028F400034603F40023B3F5002F40F0A780002320
:102904007B627B681B68184602F077FEB86299E028
:10291400BB6A03F00103002B00F08E807B681B6808
:102924007A6AD2B21146184602F09BFE38613B69BE
:1029340003F00103002B0CD07B6A5A01FB6913449A
:1029440003F530631A4601239360796A786800F0CE
:102954008BFE3B6903F00803002B0CD07B6A5A0101
:10296400FB69134403F530631A4608239360796ABC
:10297400786800F061FF3B6903F01003002B08D076
:102984007B6A5A01FB69134403F530631A4610232A
:1029940093603B6903F00203002B30D03B6A5B6910
:1029A40003F08003802B09D1FB6903F500635B68A6
:1029B400FA6902F5006243F4806353607A6A13464D
:1029C400DB0013449B0003F514737A681344043347
:1029D4007B617B69DB78012B08D17B690022DA708B
:1029E4007B6ADBB21946786804F0D8FE7B6A5A0128
:1029F400FB69134403F530631A46022393603B6971
:102A040003F02003002B08D07B6A5A01FB691344AE
:102A140003F530631A46202393603B6903F40053A3
:102A2400002B09D07B6A5A01FB69134403F5306318
:102A34001A464FF4005393607B6A01337B62BB6A8E
:102A44005B08BB62BB6A002B7FF462AF7B681B68C8
:102A5400184602F0BFFD034603F48023B3F5802F2C
:102A640040F0DB807B681B68184602F0E0FDB8622A
:102A740000237B62CDE0BB6A03F00103002B00F06E
:102A8400C2807B681B687A6AD2B21146184602F08B
:102A940006FE38613B6903F00103002B57D07B6AC3
:102AA40003F00F03012202FA03F3FB60FB6903F551
:102AB40000635A6BFB68DB43F96901F5006113405D
:102AC4004B637B6A5A01FB69134403F510631A468E
:102AD400012393607B689B79012B32D179687A6AF0
:102AE4001346DB0013449B000B44203319687868B9
:102AF4007A6A1346DB0013449B0003441C331B68AF
:102B0400194478687A6A1346DB0013449B00034433
:102B1400203319607B6A002B13D179687A6A1346D3
:102B2400DB0013449B000B4424331B68002B08D1A7
:102B34007B6818687B6803F29C431A46012102F003
:102B44000DFE7B6ADBB21946786804F0ACFD3B6984
:102B540003F00803002B08D07B6A5A01FB69134475
:102B640003F510631A46082393603B6903F01003CE
:102B7400002B08D07B6A5A01FB69134403F51063E8
:102B84001A46102393603B6903F04003002B08D0DE
:102B94007B6A5A01FB69134403F510631A46402308
:102BA40093603B6903F00203002B23D0796A386AEF
:102BB40001F0F4FD7A6A1346DB0013449B001033E2
:102BC4007A68134404337B617B69DB78012B08D179
:102BD4007B690022DA707B6ADBB21946786804F0FC
:102BE400EFFD7B6A5A01FB69134403F510631A462F
:102BF400022393603B6903F08003002B03D0796ABE
:102C0400786800F0A5FC7B6A01337B62BB6A5B08D1
:102C1400BB62BB6A002B7FF42EAF7B681B6818462F
:102C240002F0D8FC034603F00043B3F1004F22D175
:102C3400FB6903F500635B68FA6902F5006223F03F
:102C4400010353607B6893F8CC34012B08D17B6873
:102C5400002283F8CC240021786800F08BFE02E087
:102C6400786804F08DFD7B681B685A697B681B6873
:102C740002F000425A617B681B68184602F0AAFC05
:102C8400034603F40063B3F5006F12D1FB6903F547
:102C940000639B6803F00103012B02D1786804F000
:102CA40049FD7B681B685A697B681B6802F40062F3
:102CB4005A617B681B68184602F08CFC034603F4D7
:102CC4008053B3F5805F40F0B780FB6903F5006380
:102CD4005B68FA6902F5006223F0010353607B68C4
:102CE4001B681021184601F059FD0023FB6246E0E1
:102CF400FB6A5A01FB69134403F510631A464FF645
:102D04007F339360FB6A5A01FB69134403F5106334
:102D14001B68FA6A5101FA690A4402F5106223F445
:102D240000131360FB6A5A01FB69134403F5306313
:102D34001A464FF67F339360FB6A5A01FB691344CA
:102D440003F530631B68FA6A5101FA690A4402F513
:102D5400306223F400131360FB6A5A01FB691344C5
:102D640003F530631B68FA6A5101FA690A4402F5F3
:102D7400306243F000631360FB6A0133FB627B68DB
:102D84001B791A46FB6A9342B2D3FB6903F50063CD
:102D9400DB69FA6902F5006243F00113D3617B68D1
:102DA400DB7B002B16D0FB6903F50063D3F884307A
:102DB400FA6902F5006243F00B03C2F88430FB6940
:102DC40003F500635B6CFA6902F5006243F00B03E0
:102DD400536415E0FB6903F500635B69FA6902F566
:102DE400006243F4005343F02B035361FB6903F582
:102DF40000631B69FA6902F5006243F00B03136177
:102E0400FB6903F500631B68FA6902F5006223F4A9
:102E1400FE6313607B6818687B6899797B6803F2AA
:102E24009C431A4602F09AFC7B681B685A697B68CB
:102E34001B6802F480525A617B681B68184602F0D2
:102E4400C9FB034603F40053B3F5005F23D17B6849
:102E54001B68184602F05FFC7B681B68184601F08B
:102E640016FD03461A467B68DA717B681C6801F01C
:102E7400B1F901467B68DB791A46204601F01AFA5B
:102E8400786804F038FC7B681B685A697B681B68A7
:102E940002F400525A617B681B68184602F09AFBE0
:102EA400034603F00803082B0AD1786804F015FCE4
:102EB4007B681B685A697B681B6802F008025A61C8
:102EC4007B681B68184602F085FB034603F0800309
:102ED400802B23D13B6A9B6923F080023B6A9A6171
:102EE40001237B6214E079687A6A1346DB00134499
:102EF4009B000B4403F257231B78012B05D17B6AFB
:102F0400DBB21946786800F0F2FA7B6A01337B621F
:102F14007B681B791A467B6A9342E4D37B681B68FF
:102F2400184602F057FB034603F48013B3F5801FE1
:102F34003CD101237B622BE07B6A5A01FB69134479
:102F440003F510631B68BB6179687A6A1346DB007A
:102F540013449B000B4418331B78012B15D1BB6918
:102F6400002B12DA79687A6A1346DB0013449B005B
:102F74000B44173301221A707B6ADBB263F07F03C0
:102F8400DBB21946786800F0B2FA7B6A01337B62DF
:102F94007B681B791A467B6A9342CDD37B681B6896
:102FA4005A697B681B6802F480125A617B681B684B
:102FB400184602F00FFB034603F40013B3F5001F99
:102FC40056D101237B6245E07B6A5A01FB691344B5
:102FD40003F530631B68BB6179687A6A1346DB00CA
:102FE40013449B000B4403F516731B78012B2ED15D
:102FF400BB69002B2BDABB691A0C7B68D3F8D43479
:10300400534003F00103002B21D179687A6A1346F7
:10301400DB0013449B000B4403F2572301221A7074
:103024003B6A9B6943F080023B6A9A613B6A5B6935
:1030340003F08003002B0AD1FB6903F500635B688E
:10304400FA6902F5006243F40073536008E07B6A96
:1030540001337B627B681B791A467B6A9342B3D344
:103064007B681B685A697B681B6802F400125A610A
:103074007B681B68184602F0ADFA034603F08043F0
:10308400B3F1804F0AD1786804F0ACFB7B681B680D
:103094005A697B681B6802F080425A617B681B682E
:1030A400184602F097FA034603F00403042B15D1E3
:1030B4007B681B685B68BB61BB6903F00403002B7E
:1030C40002D0786804F09CFB7B681B6859687B68B5
:1030D4001B68BA690A435A6000E000BF3437BD4632
:1030E40090BD80B582B000AF78600B46FB707B6802
:1030F40093F89434012B01D1022312E07B6801225E
:1031040083F894247B68FA785A747B681B68FA788D
:103114001146184602F0F6F97B68002283F89424DD
:10312400002318460837BD4680BD80B584B000AF83
:103134007860084611461A460346FB700B463B80EE
:103144001346BB700023FB7297F90330002B0FDA90
:10315400FB7803F00F021346DB0013449B0010338B
:103164007A6813440433FB60FB6801225A700FE051
:10317400FB7803F00F021346DB0013449B0003F5B6
:1031840014737A6813440433FB60FB6800225A709A
:10319400FB7803F00F03DAB2FB681A703B88C3F3C1
:1031A4000A02FB689A60FB68BA781A71FB685B785C
:1031B400002B04D0FB681B781A46FB685A83BB7843
:1031C400022B02D1FB6800225A717B6893F8943475
:1031D400012B01D102230EE07B68012283F89424A1
:1031E4007B681B68F968184601F076FB7B6800224F
:1031F40083F89424FB7A18461037BD4680BD80B509
:1032040084B000AF78600B46FB7097F90330002B55
:103214000FDAFB7803F00F021346DB0013449B0024
:1032240010337A6813440433FB60FB6801225A703C
:103234000FE0FB7803F00F021346DB0013449B00FE
:1032440003F514737A6813440433FB60FB680022AB
:103254005A70FB7803F00F03DAB2FB681A707B68CC
:1032640093F89434012B01D102230EE07B680122F0
:1032740083F894247B681B68F968184601F0B4FB52
:103284007B68002283F89424002318461037BD4637
:1032940080BD80B586B000AFF8607A603B600B46B5
:1032A400FB72FB7A03F00F021346DB0013449B000E
:1032B40003F51473FA68134404337B617B697A68F9
:1032C400DA607B693A681A617B6900225A617B691A
:1032D40000225A70FB7A03F00F03DAB27B691A708A
:1032E400FB689B79012B02D17A687B69DA61FB6800
:1032F4001868FB689B791A46796901F051FC002330
:1033040018461837BD4680BD80B586B000AFF8605A
:103314007A603B600B46FB72FB7A03F00F021346A4
:10332400DB0013449B001033FA68134404337B61BD
:103334007B697A68DA607B693A681A617B69002282
:103344005A617B6901225A70FB7A03F00F03DAB2E7
:103354007B691A70FB689B79012B02D17A687B69BF
:10336400DA61FB681868FB689B791A46796901F091
:1033740017FC002318461837BD4680BD80B584B0BD
:1033840000AF78600B46FB70FB7803F00F037A689C
:103394001279934201D901234FE097F90330002BAE
:1033A4000FDAFB7803F00F021346DB0013449B0093
:1033B40010337A6813440433FB60FB6801225A70AB
:1033C4000DE0FA781346DB0013449B0003F51473F5
:1033D4007A6813440433FB60FB6800225A70FB686C
:1033E40001229A70FB7803F00F03DAB2FB681A70BB
:1033F4007B6893F89434012B01D102231DE07B6890
:10340400012283F894247B681B68F968184601F04C
:10341400A5FFFB7803F00F03002B09D17B68186824
:103424007B6899797B6803F29C431A4602F096F90B
:103434007B68002283F89424002318461037BD4685
:1034440080BD80B584B000AF78600B46FB70FB781C
:1034540003F00F037A681279934201D9012342E001
:1034640097F90330002B0FDAFB7803F00F021346B1
:10347400DB0013449B0010337A6813440433FB606D
:10348400FB6801225A700FE0FB7803F00F02134629
:10349400DB0013449B0003F514737A68134404336C
:1034A400FB60FB6800225A70FB6800229A70FB786C
:1034B40003F00F03DAB2FB681A707B6893F8943454
:1034C400012B01D102230EE07B68012283F89424AE
:1034D4007B681B68F968184601F0AEFF7B68002220
:1034E40083F89424002318461037BD4680BD80B568
:1034F40084B000AF78600B46FB7097F90330002B63
:103504000CDAFB7803F00F021346DB0013449B0034
:1035140010337A6813440433FB600CE0FB7803F047
:103524000F021346DB0013449B0003F514737A68FF
:1035340013440433FB607B681B68F968184601F088
:10354400CDFD0346FB72FB7A18461037BD4680BD9D
:1035540080B58AB002AF786039607B681B687B6194
:103564007B693B613A681346DB0013449B001033CC
:103574007A6813440433FB60FB685A69FB681B696F
:103584009A4201D901236BE0FB681A69FB685B6905
:10359400D31AFB61FB689B68FA699A4202D9FB68FB
:1035A4009B68FB61FB6903339B08BB612AE0FB68F2
:1035B4001A69FB685B69D31AFB61FB689B68FA694B
:1035C4009A4202D9FB689B68FB61FB6903339B0841
:1035D400BB61FB68D9683B68DAB2FB6998B27B6867
:1035E4009B7900930346786901F022FEFB68DA6850
:1035F400FB691A44FB68DA60FB685A69FB691A4480
:10360400FB685A613B685A013B69134403F5106334
:103614009B699BB2BA699A4209D8FB685A69FB68EC
:103624001B699A4203D2FB681B69002BBFD1FB685C
:103634001A69FB685B699A4211D83B6803F00F036F
:10364400012202FA03F3BB603B6903F500635A6B82
:10365400BB68DB43396901F5006113404B63002308
:1036640018462037BD4680BD80B588B000AF78606D
:1036740039607B681B68FB61FB69BB61FB693C3398
:1036840004331B687B613B685A01BB69134403F52F
:1036940030639B683B617B689B79012B7BD13B69E1
:1036A40003F00803002B15D07B69614A934240F272
:1036B400B9803B6903F40043002B00F0B3803B68FE
:1036C4005A01BB69134403F530631A464FF40043AF
:1036D4009360A7E03B6903F02003002B09D03B680B
:1036E4005A01BB69134403F530631A4620239360DF
:1036F40098E03B6903F02803002B40F093807B693A
:103704004B4A93420FD93B6903F40043002B0AD080
:103714003B685A01BB69134403F530631A464FF4FE
:10372400004393607EE03A681346DB0013449B0039
:1037340003F514737A6813440433FB60FB681A6A54
:103744003B685901BB690B4403F530631B69C3F340
:103754001203D21AFB685A613B68002B14D1FB6830
:103764001B69002B09D17B6818687B6803F29C43B2
:103774001A46012101F0F2FF06E0FB68DA68FB68F3
:103784005B691A44FB68DA603B68DBB21946786807
:1037940003F06EFF46E07B69264A934224D13B69DD
:1037A40003F40043002B0AD03B685A01BB6913445D
:1037B40003F530631A464FF40043936032E03B69EB
:1037C40003F02003002B08D03B685A01BB69134463
:1037D40003F530631A46202393603B68DBB2194635
:1037E400786803F045FF1DE03B68002B14D179682D
:1037F4003A681346DB0013449B000B4403F519732A
:103804001B68002B08D17B6818687B6803F29C4313
:103814001A46002101F0A2FF3B68DBB21946786822
:1038240003F026FF002318462037BD4680BD00BFA5
:103834000A30544F0A31544F80B586B000AF7860D7
:1038440039607B681B687B617B693B617B693C33C6
:1038540004331B68FB603B685A013B69134403F55E
:1038640030639B68BB60FB68154A93420ED9BB6802
:1038740003F40043002B09D03B685A013B6913440D
:1038840003F530631A464FF400439360786803F0FD
:10389400DDFEFB680A4A93420CD97B689B79012BB5
:1038A40008D17B6818687B6803F29C431A4601219F
:1038B40001F054FF002318461837BD4680BD00BFF1
:1038C4000A30544F80B485B000AF78600B46FB706B
:1038D40013463B807B681B685B6ABB60FB78002BEC
:1038E40007D13B8819047B681B68BA680A439A624B
:1038F40028E07B681B689B6A1B0CBA681344BB6096
:103904000023FB730DE07B681A68FB7B40339B004C
:1039140013445B681B0CBA681344BB60FB7B013324
:10392400FB73FA7BFB78013B9A42ECD33B88180487
:103934007B681968FB78013BBA68024340339B00FB
:103944000B445A60002318461437BD465DF8047BC7
:10395400704780B483B000AF78600B467B807B688F
:103964001B687A885A62002318460C37BD465DF8F6
:10397400047B704780B483B000AF78600B46FB7063
:1039840000BF0C37BD465DF8047B704780B586B038
:1039940000AF78607B68002B01D1012367E27B686C
:1039A4001B6803F00103002B75D0884B9B6803F060
:1039B4000C03042B0CD0854B9B6803F00C03082BE1
:1039C40012D1824B5B6803F48003B3F5800F0BD1F3
:1039D4007E4B1B6803F40033002B5BD07B685B6871
:1039E400002B57D1012342E27B685B68B3F5803F2B
:1039F40006D1764B1B68754A43F4803313601DE08F
:103A04007B685B68B3F5A02F0CD1704B1B686F4AC1
:103A140043F4802313606D4B1B686C4A43F480337A
:103A240013600BE0694B1B68684A23F4803313600E
:103A3400664B1B68654A23F4802313607B685B68CC
:103A4400002B13D0FDF70AFA386108E0FDF706FAF7
:103A540002463B69D31A642B01D9032307E25B4B6B
:103A64001B6803F40033002BF0D014E0FDF7F6F9E3
:103A7400386108E0FDF7F2F902463B69D31A642B7A
:103A840001D90323F3E1514B1B6803F40033002BEA
:103A9400F0D100E000BF7B681B6803F00203002B39
:103AA40063D04A4B9B6803F00C03002B0BD0474BAD
:103AB4009B6803F00C03082B1CD1444B5B6803F494
:103AC4008003002B16D1414B1B6803F00203002B2B
:103AD40005D07B68DB68012B01D00123C7E13B4B98
:103AE4001B6823F0F8027B681B69DB00374913432A
:103AF4000B603AE07B68DB68002B20D0344B01225A
:103B04001A60FDF7ABF9386108E0FDF7A7F9024642
:103B14003B69D31A022B01D90323A8E12B4B1B6861
:103B240003F00203002BF0D0284B1B6823F0F802AB
:103B34007B681B69DB00254913430B6015E0244BAC
:103B440000221A60FDF78AF9386108E0FDF786F96A
:103B540002463B69D31A022B01D9032387E11B4B8D
:103B64001B6803F00203002BF0D17B681B6803F091
:103B74000803002B36D07B685B69002B16D0154BED
:103B840001221A60FDF76AF9386108E0FDF766F969
:103B940002463B69D31A022B01D9032367E10B4B7D
:103BA4005B6F03F00203002BF0D01BE0094B0022F3
:103BB4001A60FDF753F938610EE0FDF74FF902463C
:103BC4003B69D31A022B07D9032350E10038024082
:103BD40000004742800E4742884B5B6F03F00203AC
:103BE400002BEAD17B681B6803F00403002B00F070
:103BF40097800023FB75814B1B6C03F08053002BD3
:103C04000FD10023BB607D4B1B6C7C4A43F0805377
:103C140013647A4B1B6C03F08053BB60BB680123B5
:103C2400FB75774B1B6803F48073002B18D1744B1E
:103C34001B68734A43F480731360FDF70FF938610E
:103C440008E0FDF70BF902463B69D31A022B01D9B0
:103C540003230CE16A4B1B6803F48073002BF0D040
:103C64007B689B68012B06D1644B1B6F634A43F04E
:103C7400010313671CE07B689B68052B0CD15F4B29
:103C84001B6F5E4A43F0040313675C4B1B6F5B4A74
:103C940043F0010313670BE0584B1B6F574A23F0A3
:103CA40001031367554B1B6F544A23F00403136736
:103CB4007B689B68002B15D0FDF7D0F838610AE0CB
:103CC400FDF7CCF802463B69D31A41F2883293429D
:103CD40001D90323CBE0494B1B6F03F00203002BF4
:103CE400EED014E0FDF7BAF838610AE0FDF7B6F853
:103CF40002463B69D31A41F28832934201D9032325
:103D0400B5E03E4B1B6F03F00203002BEED1FB7DAD
:103D1400012B05D1394B1B6C384A23F080531364B3
:103D24007B689B69002B00F0A180344B9B6803F0F7
:103D34000C03082B5CD07B689B69022B41D1314B6F
:103D440000221A60FDF78AF8386108E0FDF786F86A
:103D540002463B69D31A022B01D9032387E0274B80
:103D64001B6803F00073002BF0D17B68DA697B6871
:103D74001B6A1A437B685B6A9B011A437B689B6AD4
:103D84005B08013B1B041A437B68DB6A1B061B4967
:103D940013434B601B4B01221A60FDF75FF8386137
:103DA40008E0FDF75BF802463B69D31A022B01D900
:103DB40003235CE0114B1B6803F00073002BF0D06D
:103DC40054E0104B00221A60FDF748F8386108E00F
:103DD400FDF744F802463B69D31A022B01D90323A9
:103DE40045E0064B1B6803F00073002BF0D13DE067
:103DF4007B689B69012B07D1012338E0003802401E
:103E040000700040600047421B4B5B68FB607B68AE
:103E14009B69012B28D0FB6803F480027B68DB6973
:103E24009A4221D1FB6803F03F027B681B6A9A42E5
:103E34001AD1FA6847F6C07313407A68526A92013D
:103E4400934211D1FB6803F440327B689B6A5B08A0
:103E5400013B1B049A4207D1FB6803F070627B6844
:103E6400DB6A1B069A4201D0012300E000231846B6
:103E74001837BD4680BD00BF0038024080B584B00D
:103E840000AF786039607B68002B01D10123CCE05E
:103E9400684B1B6803F007033A689A420CD9654BD8
:103EA4003A68D2B21A70634B1B6803F007033A688E
:103EB4009A4201D00123B8E07B681B6803F0020337
:103EC400002B20D07B681B6803F00403002B05D073
:103ED400594B9B68584A43F4E05393607B681B68D2
:103EE40003F00803002B05D0534B9B68524A43F45C
:103EF40060439360504B9B6823F0F0027B689B689F
:103F04004D4913438B607B681B6803F00103002B4E
:103F140044D07B685B68012B07D1474B1B6803F4D3
:103F24000033002B19D101237FE07B685B68022BEF
:103F340003D07B685B68032B07D13F4B1B6803F0FE
:103F44000073002B09D101236FE03B4B1B6803F086
:103F54000203002B01D1012367E0374B9B6823F058
:103F640003027B685B68344913438B60FCF776FF7C
:103F7400F8600AE0FCF772FF0246FB68D31A41F2CC
:103F84008832934201D903234FE02B4B9B6803F003
:103F94000C027B685B689B009A42EBD1254B1B6843
:103FA40003F007033A689A420CD2224B3A68D2B221
:103FB4001A70204B1B6803F007033A689A4201D039
:103FC400012332E07B681B6803F00403002B08D054
:103FD400194B9B6823F4E0527B68DB681649134352
:103FE4008B607B681B6803F00803002B09D0124B1D
:103FF4009B6823F460427B681B69DB000E49134312
:104004008B6000F021F802460B4B9B681B0903F000
:104014000F030A49CB5C22FA03F3094A1360094BE4
:104024001B681846FCF7D6FE002318461037BD4619
:1040340080BD00BF003C024000380240387C0008CC
:1040440000000020040000202DE9B04F90B000AF24
:1040540000237B630023FB6300233B630023BB63D8
:10406400594B9B6803F00C03082B0DD0082B00F26E
:10407400A180002B02D0042B03D09BE0534BBB63E5
:104084009BE0534BBB6398E04F4B5B6803F03F03EB
:104094007B634D4B5B6803F48003002B28D04A4BB1
:1040A4005B689B0900223B627A623B6AC3F30800A7
:1040B4000021474B03FB01F2002300FB03F31344ED
:1040C400434AA0FB0212FA620A46BA62FA6A13442D
:1040D400FB627B6B0022BB61FA61D7E90623D7E957
:1040E4000A01FCF775F802460B461346FB6353E0DE
:1040F400354B5B689B0900223B617A613B69C3F3E2
:10410400080A4FF0000B52465B464FF000004FF098
:104114000001590141EAD261500102460B46B2EB5B
:104124000A0863EB0B094FF000024FF000034FEA5B
:10413400891343EA98634FEA8812B2EB080463EBED
:1041440009054FF000024FF00003EB0043EA5473FB
:10415400E20014461D4614EB0A033B6045EB0B03D7
:104164007B604FF000024FF00003D7E90045294679
:104174008B02214643EA915321468A02104619468E
:104184007B6B0022BB60FA60D7E90223FCF720F8BE
:1041940002460B461346FB630B4B5B681B0C03F098
:1041A400030301335B003B63FA6B3B6BB2FBF3F33A
:1041B400BB6302E0054BBB6300BFBB6B18464037D3
:1041C400BD46BDE8B08F00BF003802400024F400B3
:1041D40040787D0180B400AF034B1B681846BD4690
:1041E4005DF8047B704700BF0000002084B080B5F8
:1041F40084B000AF786007F11C0080E80E0097F8E7
:104204002130012B23D17B689B6B23F480327B68A4
:104214009A637B68DB6823F4840323F040037A68A1
:10422400D3607B68DB6823F440127B68DA6097F81C
:104234002830012B05D17B68DB6843F480127B684E
:10424400DA60786801F0E8FA0346FB731BE07B68E8
:10425400DB6843F040027B68DA60786801F0DCFADE
:104264000346FB7397F82530002B06D17B689B6BC4
:1042740043F480327B689A6305E07B689B6B23F48C
:1042840080327B689A63BB7F012B0BD17B689B6870
:1042940043F006027B689A607B689B6843F02002C7
:1042A4007B689A60FB7B18461037BD46BDE88040AA
:1042B40004B0704780B487B000AFF860B9601346AB
:1042C400FB71FB79022B65D1BB68414A934206D945
:1042D400BB68404A934202D20F237B6162E0BB6811
:1042E4003C4A934206D3BB683B4A934202D20E2314
:1042F4007B6157E0BB68384A934206D3BB68374AB0
:10430400934202D20D237B614CE0BB68334A934253
:1043140006D3BB68324A934202D80C237B6141E046
:10432400BB682F4A934206D9BB682E4A934202D8EF
:104334000B237B6136E0BB682A4A934206D9BB68EB
:10434400294A934202D80A237B612BE0BB68264AA0
:10435400934206D9BB68254A934202D209237B6162
:1043640020E0BB68214A934206D3BB68204A9342AB
:1043740002D808237B6115E0BB681D4A934206D925
:10438400BB681C4A934202D207237B610AE00623DE
:104394007B6107E0FB79002B02D109237B6101E0FB
:1043A40009237B61FB68DB6823F47052FB68DA60E5
:1043B400FB68DA687B699B0203F470531A43FB6859
:1043C400DA60002318461C37BD465DF8047B70474D
:1043D400BFACD800C0E1E4000024F40080730601FF
:1043E4009F491A01FF2C31013FA44C0100366E0194
:1043F4001FABA6010048E80180B483B000AF786029
:104404007B689B6843F001027B689A60002318462E
:104414000C37BD465DF8047B704780B483B000AFB1
:1044240078607B689B6823F001027B689A600023B4
:1044340018460C37BD465DF8047B704780B584B0E0
:1044440000AF78600B46FB700023FB607B68DB6881
:1044540023F0C0427B68DA60FB78012B15D17B68BE
:10446400DB6843F000527B68DA600A20FCF702FD47
:10447400FB680A33FB60786801F03FF90346012BBF
:104484001ED0FB68C72BF0D91AE0FB78002B15D19E
:104494007B68DB6843F080427B68DA600A20FCF7C3
:1044A400E9FCFB680A33FB60786801F026F90346EF
:1044B400002B05D0FB68C72BF0D901E0012305E0F0
:1044C400FB68C82B01D1012300E0002318461037F4
:1044D400BD4680BD84B080B586B000AF786007F17A
:1044E400240080E80E000023FB757B68FB6000233A
:1044F4003B6109E07A683B6940339B001344002226
:104504005A603B6901333B613B690E2BF2D997F842
:104514002E30002B1CD1FB6803F500635B68FA683E
:1045240002F5006243F0020353607B689B6B43F423
:1045340000127B689A637B689B6B23F400227B6880
:104544009A637B689B6B23F480227B689A630BE0FD
:104554007B689B6B23F400127B689A637B689B6B7C
:1045640043F400227B689A63FB6803F560631A4690
:104574000023136097F82930012B0DD197F82730C9
:10458400002B04D10021786800F068F908E00121CB
:10459400786800F063F903E00321786800F05EF9BD
:1045A4001021786800F0FAF80346002B01D00123AB
:1045B400FB75786800F024F90346002B01D0012331
:1045C400FB75FB6803F500631A4600231361FB685F
:1045D40003F500631A4600235361FB6803F5006387
:1045E4001A460023D36100233B6143E03B695A012F
:1045F400FB68134403F510631B6803F00043B3F135
:10460400004F18D13B69002B0AD13B695A01FB6862
:10461400134403F510631A464FF00063136013E06C
:104624003B695A01FB68134403F510631A464FF0C3
:104634009043136008E03B695A01FB68134403F597
:1046440010631A46002313603B695A01FB68134444
:1046540003F510631A46002313613B695A01FB6892
:10466400134403F510631A464FF67F3393603B6996
:1046740001333B6197F824301A463B699342B5D322
:1046840000233B6143E03B695A01FB68134403F593
:1046940030631B6803F00043B3F1004F18D13B694A
:1046A400002B0AD13B695A01FB68134403F53063BC
:1046B4001A464FF00063136013E03B695A01FB682C
:1046C400134403F530631A464FF09043136008E037
:1046D4003B695A01FB68134403F530631A4600230F
:1046E40013603B695A01FB68134403F530631A46AF
:1046F400002313613B695A01FB68134403F53063DB
:104704001A464FF67F3393603B6901333B6197F858
:1047140024301A463B699342B5D3FB6803F5006322
:104724001B69FA6802F5006223F4807313617B68E5
:1047340000229A617B686FF080425A6197F82630B4
:10474400002B05D17B689B6943F010027B689A615A
:104754007B689A69104B13437A68936197F82A30FF
:10476400002B05D07B689B6943F008027B689A6143
:1047740097F82E30012B07D17B689B6943F0804367
:1047840043F004037A689361FB7D18461837BD46ED
:10479400BDE8804004B0704700383C8080B485B0E8
:1047A40000AF786039600023FB60FB680133FB6075
:1047B400FB68B3F1706F01D903231BE07B681B69AD
:1047C400002BF2DA0023FB603B689B0143F02002DC
:1047D4007B681A61FB680133FB60FB68B3F1706F9F
:1047E40001D9032306E07B681B6903F02003202B17
:1047F400F0D0002318461437BD465DF8047B70479B
:1048040080B485B000AF78600023FB60FB6801339F
:10481400FB60FB68B3F1706F01D9032318E07B6878
:104824001B69002BF2DA0023FB607B6810221A61FB
:10483400FB680133FB60FB68B3F1706F01D903239C
:1048440006E07B681B6903F01003102BF0D00023F3
:1048540018461437BD465DF8047B704780B485B0B4
:1048640000AF78600B46FB707B68FB60FB6803F568
:1048740000631A68FB78F96801F5006113430B6063
:10488400002318461437BD465DF8047B704780B496
:1048940087B000AF78607B683B613B6903F50063D8
:1048A4009B6803F00603FB60FB68002B02D1002326
:1048B400FB750AE0FB68022B02D0FB68062B02D1D1
:1048C4000223FB7501E00F23FB75FB7D18461C37A3
:1048D400BD465DF8047B704780B485B000AF786056
:1048E40039607B68FB603B681B78BB603B685B7826
:1048F400012B3AD1FB6803F50063DA693B681B7846
:1049040003F00F03012101FA03F39BB2F96801F5E7
:1049140000611343CB61BB685A01FB68134403F580
:1049240010631B6803F40043002B55D1BB685A0184
:10493400FB68134403F510631A683B689B68C3F370
:104944000A013B681B799B041943BB689B050B4315
:104954001343BA685101FA680A4402F5106243F03D
:10496400805343F40043136036E0FB6803F50063AF
:10497400DA693B681B7803F00F03012101FA03F3A2
:104984001B04F96801F500611343CB61BB685A014C
:10499400FB68134403F530631B6803F40043002BE6
:1049A4001AD1BB685A01FB68134403F530631A68D3
:1049B4003B689B68C3F30A013B681B799B040B4368
:1049C4001343BA685101FA680A4402F5306243F0AD
:1049D400805343F400431360002318461437BD4644
:1049E4005DF8047B7047000080B485B000AF786048
:1049F40039607B68FB603B681B78BB603B685B7815
:104A0400012B61D1BB685A01FB68134403F51063A1
:104A14001B6803F00043B3F1004F1FD1BB685A0178
:104A2400FB68134403F510631B68BA685101FA6804
:104A34000A4402F5106243F000631360BB685A0134
:104A4400FB68134403F510631B68BA685101FA68E4
:104A54000A4402F5106243F080431360FB6803F5D7
:104A64000063DA6B3B681B7803F00F03012101FA42
:104A740003F39BB2DB43F96801F500611340CB6398
:104A8400FB6803F50063DA693B681B7803F00F03E6
:104A9400012101FA03F39BB2DB43F96801F50061DC
:104AA4001340CB61BB685A01FB68134403F51063E0
:104AB4001A68BB685901FB680B4403F51063194677
:104AC400354B13400B6060E0BB685A01FB6813442C
:104AD40003F530631B6803F00043B3F1004F1FD1AB
:104AE400BB685A01FB68134403F530631B68BA685A
:104AF4005101FA680A4402F5306243F0006313601E
:104B0400BB685A01FB68134403F530631B68BA6839
:104B14005101FA680A4402F5306243F0804313609D
:104B2400FB6803F50063DA6B3B681B7803F00F0343
:104B3400012101FA03F31B04DB43F96801F5006169
:104B44001340CB63FB6803F50063DA693B681B78A9
:104B540003F00F03012101FA03F31B04DB43F9689B
:104B640001F500611340CB61BB685A01FB68134433
:104B740003F530631A68BB685901FB680B4403F5FD
:104B840030631946054B13400B6000231846143755
:104B9400BD465DF8047B7047007833EC0078F3EF92
:104BA40080B58AB002AFF860B9601346FB71FB6848
:104BB400FB61BB681B78BB61BB685B78012B40F071
:104BC4007F81BB681B69002B32D1BB695A01FB6929
:104BD400134403F510631B69BA695101FA690A4465
:104BE40002F5106223F0FF5323F4C0131361BB6971
:104BF4005A01FB69134403F510631B69BA69510137
:104C0400FA690A4402F5106243F400231361BB6994
:104C14005A01FB69134403F510631B69BA69510116
:104C2400FA690A4402F51062DB0CDB04136197E0B5
:104C3400BB695A01FB69134403F510631B69BA6924
:104C44005101FA690A4402F51062DB0CDB041361BA
:104C5400BB695A01FB69134403F510631B69BA6904
:104C64005101FA690A4402F5106223F0FF5323F458
:104C7400C0131361BB69002B1AD1BB681A69BB68E6
:104C84009B689A4203D9BB689A68BB681A61BB697E
:104C94005A01FB69134403F510631B69BA69510196
:104CA400FA690A4402F5106243F40023136144E0F4
:104CB400BB681A69BB689B6813445A1EBB689B682F
:104CC400B2FBF3F3FB82BB695A01FB69134403F59E
:104CD40010631A69FB8AD904A44B0B40B9694801D3
:104CE400F969014401F5106113430B61BB681B7939
:104CF400012B22D1BB695A01FB69134403F51063EC
:104D04001B69BA695101FA690A4402F5106223F079
:104D1400C0431361BB695A01FB69134403F5106373
:104D24001A69FB8A5B0703F0C043B9694801F96952
:104D3400014401F5106113430B61BB695A01FB691E
:104D4400134403F510631A69BB681B69C3F31203A8
:104D5400B9694801F969014401F5106113430B6114
:104D6400FB79012B4BD1BB68DB69002B09D0BB69F4
:104D74005A01FB69134403F510631A46BB68DB69E7
:104D84005361BB681B79012B28D1FB6903F50063D0
:104D94009B6803F48073002B10D1BB695A01FB6933
:104DA400134403F510631B68BA695101FA690A4494
:104DB40002F5106243F0005313600FE0BB695A011F
:104DC400FB69134403F510631B68BA695101FA695E
:104DD4000A4402F5106243F080531360BB695A0120
:104DE400FB69134403F510631B68BA695101FA693E
:104DF4000A4402F5106243F00443136066E1BB69A0
:104E04005A01FB69134403F510631B68BA69510125
:104E1400FA690A4402F5106243F004431360BB6864
:104E24001B79012B15D0BB681B69002B00F04E8148
:104E3400FB6903F500635A6BBB681B7803F00F032F
:104E4400012101FA03F3F96901F5006113434B638E
:104E54003CE1FB6903F500639B6803F48073002B5A
:104E640010D1BB695A01FB69134403F510631B6835
:104E7400BA695101FA690A4402F5106243F0005319
:104E840013600FE0BB695A01FB69134403F5106317
:104E94001B68BA695101FA690A4402F5106243F0C9
:104EA40080531360BB68D968BB681A78BB681B69F8
:104EB40098B2FB7900930346F86800F0B9F905E16C
:104EC400BB695A01FB69134403F530631B69BA6972
:104ED4005101FA690A4402F53062DB0CDB04136108
:104EE400BB695A01FB69134403F530631B69BA6952
:104EF4005101FA690A4402F5306223F0FF5323F4A6
:104F0400C0131361BB69002B32D1BB681B69002B32
:104F140003D0BB689A68BB681A61BB689A68BB68AF
:104F24001A62BB695A01FB69134403F530631A69B9
:104F3400BB681B6AC3F31203B9694801F9690144E8
:104F440001F5306113430B61BB695A01FB691344DA
:104F540003F530631B69BA695101FA690A4402F521
:104F6400306243F40023136162E000BF0000F81FC5
:104F7400BB681B69002B23D1BB695A01FB6913442D
:104F840003F530631A69BB689B68C3F31203B969FC
:104F94004801F969014401F5306113430B61BB69B0
:104FA4005A01FB69134403F530631B69BA69510163
:104FB400FA690A4402F5306243F40023136137E0CE
:104FC400BB681A69BB689B6813445A1EBB689B681C
:104FD400B2FBF3F3FB82BB689B68FA8A03FB02F221
:104FE400BB681A62BB695A01FB69134403F5306359
:104FF4001A69FB8AD904384B0B40B9694801F9692D
:10500400014401F5306113430B61BB695A01FB692B
:10501400134403F530631A69BB681B6AC3F31203B4
:10502400B9694801F969014401F5306113430B6121
:10503400FB79012B0DD1BB68DB68002B09D0BB6861
:10504400D968BB695A01FB69134403F530630A4606
:105054005A61BB681B79012B28D1FB6903F50063F6
:105064009B6803F48073002B10D1BB695A01FB6960
:10507400134403F530631B68BA695101FA690A44A1
:1050840002F5306243F0005313600FE0BB695A012C
:10509400FB69134403F530631B68BA695101FA696B
:1050A4000A4402F5306243F080531360BB695A012D
:1050B400FB69134403F530631B68BA695101FA694B
:1050C4000A4402F5306243F0044313600023184697
:1050D4002037BD4680BD00BF0000F81F80B487B0F4
:1050E40000AF786039600023FB600023FB757B68A8
:1050F4003B613B685B78012B4AD13B681B785A01C2
:105104003B69134403F510631B6803F00043B3F1D8
:10511400004F40F086803B681B785A013B6913447A
:1051240003F510631B683A68127851013A690A441E
:1051340002F5106243F0006313603B681B785A0168
:105144003B69134403F510631B683A6812785101F4
:105154003A690A4402F5106243F080431360FB6825
:105164000133FB60FB6842F21072934202D90123BF
:10517400FB7556E03B681B785A013B69134403F501
:1051840010631B6803F00043B3F1004FE7D048E01D
:105194003B681B785A013B69134403F530631B6871
:1051A40003F00043B3F1004F3BD13B681B785A0135
:1051B4003B69134403F530631B683A681278510164
:1051C4003A690A4402F5306243F0006313603B68B5
:1051D4001B785A013B69134403F530631B683A6832
:1051E400127851013A690A4402F5306243F080436F
:1051F4001360FB680133FB60FB6842F21072934258
:1052040002D90123FB750CE03B681B785A013B690A
:10521400134403F530631B6803F00043B3F1004FFC
:10522400E7D0FB7D18461C37BD465DF8047B70470C
:1052340080B489B000AFF860B96011461A460B46D5
:10524400FB711346BB80FB687B61BB68FB6197F80D
:105254002830002B23D1BB8803339B083B610023F8
:10526400BB6118E0FB791A037B69134403F580538F
:105274001A46FB691B681360FB690133FB61FB6918
:105284000133FB61FB690133FB61FB690133FB61A2
:10529400BB690133BB61BA693B699A42E2D300231B
:1052A40018462437BD465DF8047B704780B48BB044
:1052B40000AFF860B9601346FB80FB68BB61BB6854
:1052C4007B62FB889B089BB27B61FB8803F0030332
:1052D400FB8300233B6214E0BB6903F580531A6827
:1052E4007B6A1A607B6A01337B627B6A01337B626F
:1052F4007B6A01337B627B6A01337B623B6A0133E5
:105304003B623A6A7B699A42E6D3FB8B002B1ED040
:1053140000233B62BB6903F580531A4607F110036F
:1053240012681A603A693B6ADBB2DB0022FA03F3C3
:10533400DAB27B6A1A703B6A01333B627B6A0133DF
:105344007B62FB8B013BFB83FB8B002BEAD17B6AEB
:1053540018462C37BD465DF8047B704780B485B091
:1053640000AF786039607B68FB603B681B78BB608A
:105374003B685B78012B2CD1BB685A01FB68134452
:1053840003F510631B68002B12DBBB68002B0FD0E6
:10539400BB685A01FB68134403F510631B68BA68C1
:1053A4005101FA680A4402F5106223F08043136045
:1053B400BB685A01FB68134403F510631B68BA68A1
:1053C4005101FA680A4402F5106243F400131360B1
:1053D4002BE0BB685A01FB68134403F530631B6878
:1053E400002B12DBBB68002B0FD0BB685A01FB6893
:1053F400134403F530631B68BA685101FA680A4420
:1054040002F5306223F080431360BB685A01FB68E5
:10541400134403F530631B68BA685101FA680A44FF
:1054240002F5306243F40013136000231846143766
:10543400BD465DF8047B704780B485B000AF7860EA
:1054440039607B68FB603B681B78BB603B685B78BA
:10545400012B28D1BB685A01FB68134403F5106380
:105464001B68BA685101FA680A4402F5106223F411
:10547400001313603B681B79032B03D03B681B7933
:10548400022B38D1BB685A01FB68134403F510633F
:105494001B68BA685101FA680A4402F5106243F0C5
:1054A4008053136027E0BB685A01FB68134403F57B
:1054B40030631B68BA685101FA680A4402F5306225
:1054C40023F4001313603B681B79032B03D03B6860
:1054D4001B79022B0FD1BB685A01FB68134403F5F7
:1054E40030631B68BA685101FA680A4402F53062F5
:1054F40043F080531360002318461437BD465DF80B
:10550400047B704780B485B000AF78600B46FB70B5
:105514007B68FB60FB6803F500631B68FA6802F5AF
:10552400006223F4FE631360FB6803F500631A68EA
:10553400FB781B0103F4FE63F96801F50061134372
:105544000B60002318461437BD465DF8047B704792
:1055540080B485B000AF78607B68FB60FB6803F5BE
:1055640060631B68FA6802F5606223F0030313604A
:10557400FB6803F500635B68FA6802F5006223F0D8
:1055840002035360002318461437BD465DF8047BBC
:10559400704780B485B000AF78607B68FB60FB68BF
:1055A40003F560631B68FA6802F5606223F0030385
:1055B4001360FB6803F500635B68FA6802F5006238
:1055C40043F002035360002318461437BD465DF8C8
:1055D400047B704780B485B000AF78607B685B69FA
:1055E400FB607B689B69FA681340FB60FB681846A4
:1055F4001437BD465DF8047B704780B485B000AFB6
:1056040078607B68FB60FB6803F500639B69BB60A3
:10561400FB6803F50063DB69BA681340BB60BB68D1
:105624001B0C18461437BD465DF8047B704780B4E4
:1056340085B000AF78607B68FB60FB6803F50063AE
:105644009B69BB60FB6803F50063DB69BA681340C0
:10565400BB60BB689BB218461437BD465DF8047B3B
:10566400704780B485B000AF78600B46FB707B68F0
:10567400FB60FB785A01FB68134403F530639B68B5
:10568400BB60FB6803F500635B69BA681340BB60E9
:10569400BB6818461437BD465DF8047B704780B478
:1056A40087B000AF78600B46FB707B687B617B69D9
:1056B40003F500631B693B617B6903F500635B6B66
:1056C400FB60FB7803F00F03FA6822FA03F3DB01B3
:1056D400DBB23A6913433B61FB785A017B6913449B
:1056E40003F510639B683A691340BB60BB681846B6
:1056F4001C37BD465DF8047B704780B483B000AFAF
:1057040078607B685B6903F0010318460C37BD467B
:105714005DF8047B704780B485B000AF78607B6827
:10572400FB60FB6803F510631B68FA6802F51062FE
:1057340023F4FF6323F007031360FB6803F500639E
:105744005B68FA6802F5006243F4807353600023D7
:1057540018461437BD465DF8047B704780B487B0A3
:1057640000AFF8600B467A60FB72FB687B61FB68F4
:105774003C3304331B683B613B69264A93420AD994
:105784007B6903F530631B6803F00043B3F1004FFA
:1057940001D1002337E07B6903F530631A46002307
:1057A40013617B6903F530631B697A6902F5306222
:1057B40043F4002313617B6903F530631B697A6941
:1057C40002F5306243F0180313617B6903F530631B
:1057D4001B697A6902F5306243F0C0431361FB7AB6
:1057E400012B0FD17B6903F530631A467B68536143
:1057F4007B6903F530631B687A6902F5306243F014
:1058040080231360002318461C37BD465DF8047BD3
:10581400704700BF0A30544F80B485B000AF786041
:105824000023FB60FB680133FB60FB68B3F1706F1E
:1058340001D9032322E07B681B69002BF2DA0A23D7
:10584400FB6002E0FB68013BFB60FB68002BF9D1C5
:105854007B681B6943F001027B681A61FB680133B2
:10586400FB60FB68B3F1706F01D9032306E07B682A
:105874001B6903F00103012BF0D0002318461437F1
:10588400BD465DF8047B704780B584B000AF786096
:105894000B46FB70102002F039F9F860FB68002B0E
:1058A40009D17B68D3F8D4227B68B032002143F855
:1058B4002210022348E07B68D3F8D4227B68B032FC
:1058C400F96843F822107B68D3F8D4227B68B0329D
:1058D40053F822207B68C3F8BC227B681B7C002B16
:1058E4000DD11B4B1B7803F00F02796813469B0004
:1058F40013449B000B441C3307221A600CE0144B26
:105904001B7803F00F02796813469B0013449B0035
:105914000B441C330A221A600D4B19780B23032203
:10592400786801F0E2FF0A4B1B7803F00F027968F4
:1059340013469B0013449B000B44233301221A702B
:10594400FB6800221A73002318461037BD4680BD39
:10595400C800002080B582B000AF78600B46FB70B1
:105964001F4B1B781946786801F0E5FF1C4B1B7828
:1059740003F00F02796813469B0013449B000B4409
:10598400233300221A70164B1B7803F00F02796838
:1059940013469B0013449B000B441C3300221A60E3
:1059A4007B68D3F8D4227B68B03253F82230002BC2
:1059B40011D07B68D3F8D4227B68B03253F82230FC
:1059C400184602F0B1F87B68D3F8D4227B68B03271
:1059D400002143F82210002318460837BD4680BD35
:1059E400C800002080B586B000AF786039607B685D
:1059F400D3F8D4227B68B03253F82230FB60002302
:105A0400FB7500237B81FB68002B01D10323E8E0B5
:105A14003B681B7803F06003002B46D0202B40F03A
:105A2400D8803B685B78023B092B36D801A252F838
:105A340023F000BF8F5A00086F5A00089F5A0008CD
:105A44009F5A00089F5A00089F5A00089F5A00084E
:105A54009F5A00087D5A0008615A00083B685B8819
:105A6400DBB21A46FB681A601EE0FB680122194685
:105A7400786801F0FBFB17E03B685B881B0A9BB26C
:105A8400DBB21A46FB685A600EE0FB68043301225D
:105A94001946786801F0EAFB06E03968786801F095
:105AA40068FB0323FB7500BF9AE03B685B780B2B14
:105AB40000F2868001A252F823F000BFF15A0008D8
:105AC400D35B0008C55B0008C55B0008C55B000824
