:020000040800F2
:1020000000500020D1380008712800087928000805
:102010008128000889280008912800080000000095
:1020200000000000000000000000000099280008E7
:10203000A528000800000000B1280008BD280008FD
:102040001939000819390008193900081939000828
:102050001939000819390008193900081939000818
:10206000193900081939000819390008C928000869
:1020700019390008193900081939000819390008F8
:102080001939000819390008DD280008F12800086E
:1020900005290008193900081939000819390008FC
:1020A00019390008193900081939000819390008C8
:1020B00019290008193900081939000819390008C8
:1020C00019390008193900081939000819390008A8
:1020D0001939000819390008193900081939000898
:1020E00019390008193900081939000800000000E2
:1020F00000000000000000000000000000000000E0
:0C21000000000000000000005FF808F183
:10210C0010B5054C237833B9044B13B10448AFF325
:10211C0000800123237010BD580100200000000036
:10212C0014B3000808B5034B1BB103490348AFF3C4
:10213C00008008BD000000005C01002014B3000802
:10214C0080B500AF01F044F801F0CCF801F0F4F9DF
:10215C0001F0DEF914220349034808F0D3F800BF5C
:10216C0080BD00BF4C0000205402002080B500AFA1
:10217C0001F0CEFB00F05AF800F0A0F900F080F965
:10218C0000F0B2F800F01AF900F0D0FB1A4802F097
:10219C0077FA042219491A4801F0AAFD184801F0EF
:1021AC00F1FC184805F054F800BF174B93F90030B8
:1021BC00002BFAD0154BB3F900309AB2144B1A809D
:1021CC00144BB3F900309AB2134B1A80134BB3F97A
:1021DC0000309AB2124B1A80124BB3F900309AB2FB
:1021EC00114B1A8000F0EAFE00F096FF00F0D6FFCB
:1021FC00FFF7A6FFFCE700BFA4010020300200207F
:10220C0074010020E80100207809002074090020E6
:10221C00860900207609002088090020700900201A
:10222C008A090020720900208C09002080B594B026
:10223C0000AF07F1280328220021184609F037F8CF
:10224C0007F1140300221A605A609A60DA601A616E
:10225C003B1D00221A605A609A60DA600123BB624F
:10226C004FF48033FB6200233B630123BB630223E7
:10227C007B644FF48033BB644FF48013FB6407F131
:10228C002803184604F000FB0346002B01D000F095
:10229C0091F90F237B610223BB610023FB614FF497
:1022AC0080633B6200237B6207F114030121184613
:1022BC0004F06CFD0346002B01D000F07BF91223D7
:1022CC007B604FF48043FB604FF480033B613B1D0C
:1022DC00184604F0B7FE0346002B01D000F06AF953
:1022EC0000BF5037BD4680BD80B584B000AF3B1DEC
:1022FC0000221A605A609A602E4B2F4A1A602D4B9E
:10230C004FF480729A602B4B01221A73294B0022D6
:10231C001A75284B4FF46022DA61264B00225A6062
:10232C00244B04221A61234801F054FB0346002B72
:10233C0001D000F03FF900237B600123BB60072331
:10234C00FB603B1D19461B4801F08AFE0346002B1F
:10235C0001D000F02FF901237B600223BB603B1DF1
:10236C001946144801F07CFE0346002B01D000F006
:10237C0021F902237B600323BB603B1D19460D48EA
:10238C0001F06EFE0346002B01D000F013F903237D
:10239C007B600423BB603B1D1946064801F060FEC0
:1023AC000346002B01D000F005F900BF1037BD46E5
:1023BC0080BD00BF740100200024014080B586B0B0
:1023CC0000AF07F1080300221A605A609A60DA60C5
:1023DC003B4600221A605A601E4B4FF080421A6036
:1023EC001C4B41F2BF225A601A4B00229A60194BC7
:1023FC0041F28732DA60174B00221A61154B00222A
:10240C009A61144804F0D4FE0346002B01D000F06E
:10241C00D1F84FF48053BB6007F1080319460D48FF
:10242C0005F058F80346002B01D000F0C3F8002348
:10243C003B6000237B603B461946064805F03AFAA0
:10244C000346002B01D000F0B5F800BF1837BD468D
:10245C0080BD00BFE801002080B582B000AF78607D
:10246C007B681B68B3F1804F04D14FF400510348D3
:10247C0002F0A7FC00BF0837BD4680BD001001402C
:10248C0080B582B000AF0C4B5B690B4A43F0010383
:10249C005361094B5B6903F001037B607B6800228D
:1024AC0000210B2002F0B5F80B2002F0CEF800BF93
:1024BC000837BD4680BD00BF0010024080B588B013
:1024CC0000AF07F1100300221A605A609A60DA60BC
:1024DC00344B9B69334A43F010039361314B9B6936
:1024EC0003F01003FB60FB682E4B9B692D4A43F0F5
:1024FC00200393612B4B9B6903F02003BB60BB68EB
:10250C00284B9B69274A43F004039361254B9B6935
:10251C0003F004037B607B68224B9B69214A43F0E8
:10252C00080393611F4B9B6903F008033B603B68F6
:10253C0000224FF400511C4802F02BFC4FF40053C6
:10254C003B6101237B610023BB610223FB6107F12B
:10255C0010031946144802F081FA01224FF400517D
:10256C00114802F016FC48F210733B6100237B61AA
:10257C000123BB6107F1100319460C4802F06EFAF7
:10258C004FF2F8333B6100237B610123BB6107F100
:10259C0010031946064802F061FA00BF2037BD4609
:1025AC0080BD00BF00100240001001400008014037
:1025BC00000C014080B400AF72B600BF00BFFDE755
:1025CC0080B483B000AF7860364B93F90030002BA9
:1025DC0028D1354B1B881A46344B1B681344334A9D
:1025EC001360314B5B881A46314B1B681344304ADD
:1025FC0013602D4B9B881A462E4B1B6813442D4A97
:10260C001360294BDB881A462B4B1B6813442A4A50
:10261C0013602A4B93F90030DBB20133DBB25AB2B0
:10262C00264B1A70254B93F90030642B35D11F4B78
:10263C001B68234AA2FB03235B091AB2214B1A80A5
:10264C001B4B1B681E4AA2FB03235B091AB21E4BD1
:10265C001A80184B1B681A4AA2FB03235B091AB297
:10266C001A4B1A80144B1B68154AA2FB03235B09F7
:10267C001AB2174B1A800D4B00221A600C4B002219
:10268C001A600C4B00221A600B4B00221A600B4B89
:10269C0000221A70034B01221A7000BF0C37BD4682
:1026AC0080BC7047780900203002002038020020DE
:1026BC003C0200204002002044020020480200207E
:1026CC001F85EB5174090020760900207009002049
:1026DC007209002080B485B000AF154B9B69144A79
:1026EC0043F001039361124B9B6903F00103BB6040
:1026FC00BB680F4BDB690E4A43F08053D3610C4B24
:10270C00DB6903F080537B607B680A4B5B68FB6082
:10271C00FB6823F0E063FB60FB6843F00073FB6035
:10272C00044AFB68536000BF1437BD4680BC704739
:10273C00001002400000014080B588B000AF786006
:10274C0007F1100300221A605A609A60DA607B6805
:10275C001B682D4A934252D12C4B9B692B4A43F454
:10276C0000739361294B9B6903F40073FB60FB6856
:10277C00264B9B69254A43F004039361234B9B69C9
:10278C0003F00403BB60BB680F233B6103237B6135
:10279C0007F1100319461E4802F060F91D4B1E4A42
:1027AC001A601C4B00225A601A4B00229A60194B7B
:1027BC008022DA60174B4FF480721A61154B4FF47C
:1027CC0080625A61134B20229A61124B4FF40052D3
:1027DC00DA61104801F054FF0346002B01D0FFF7DB
:1027EC00E9FE7B680B4A1A620A4A7B685362002234
:1027FC000021122001F00DFF122001F026FF00BF76
:10280C002037BD4680BD00BF0024014000100240AF
:10281C0000080140A40100200800024080B584B0EB
:10282C0000AF78607B681B68B3F1804F13D10C4B01
:10283C00DB690B4A43F00103D361094BDB6903F0FD
:10284C000103FB60FB68002200211C2001F0E1FE6B
:10285C001C2001F0FAFE00BF1037BD4680BD00BF42
:10286C000010024080B400AF00BFFDE780B400AFA1
:10287C0000BFFDE780B400AF00BFFDE780B400AF40
:10288C0000BFFDE780B400AF00BFFDE780B400AF30
:10289C0000BFBD4680BC704780B400AF00BFBD46D2
:1028AC0080BC704780B400AF00BFBD4680BC704791
:1028BC0080B500AF01F072F800BF80BD80B500AFED
:1028CC00024801F097FF00BF80BD00BFA4010020AB
:1028DC0080B500AF024801F0E9FA00BF80BD00BF2F
:1028EC007401002080B500AF024802F09FFB00BFCE
:1028FC0080BD00BF7804002080B500AF024802F014
:10290C0095FB00BF80BD00BF7804002080B500AFF0
:10291C00024804F0EFFC00BF80BD00BFE8010020BE
:10292C0080B400AF00BFBD4680BC704780B582B09C
:10293C0000AF00220B490C4807F08EFD0B490A48EA
:10294C0007F0B5FD0A49084807F070FD064BD3F8AF
:10295C0018327B60044807F0C3FD00BF0837BD4642
:10296C0080BD00BF18000020540200206800002029
:10297C000800002080B584B000AF78607B681B68CD
:10298C000D4A934213D10D4BDB690C4A43F40003FF
:10299C00D3610A4BDB6903F40003FB60FB68002284
:1029AC000021142001F035FE142001F04EFE00BF72
:1029BC001037BD4680BD00BF005C004000100240D7
:1029CC0080B582B000AF78607B68D3F8D4227B6886
:1029DC0003F526731946104607F0CAFD00BF0837E9
:1029EC00BD4680BD80B582B000AF78600B46FB70F1
:1029FC007B68D3F8D402FA78796813469B001344A9
:102A0C00DB000B4403F5B2731A68FB78194607F028
:102A1C00FCFD00BF0837BD4680BD80B582B000AF5D
:102A2C0078600B46FB707B68D3F8D402FA7879682F
:102A3C0013469B001344DB000B4424331A68FB78C9
:102A4C00194607F03DFE00BF0837BD4680BD80B576
:102A5C0082B000AF78607B68D3F8D432184607F0A8
:102A6C0020FF00BF0837BD4680BD80B584B000AFE5
:102A7C0078600123FB737B689B79022B02D10123C5
:102A8C00FB7302E00123FB7300BF7B68D3F8D432E5
:102A9C00FA7B1146184607F0D1FE7B68D3F8D43286
:102AAC00184607F09CFE00BF1037BD4680BD0000E5
:102ABC0080B582B000AF78607B68D3F8D43218460A
:102ACC0007F0CBFE7B689B7A002B05D0044B1B696F
:102ADC00034A43F00603136100BF0837BD4680BDAF
:102AEC0000ED00E080B582B000AF78607B68D3F871
:102AFC00D432184607F0C5FE00BF0837BD4680BD6E
:102B0C0080B582B000AF78603D4A7B68C2F8D432A1
:102B1C007B683B4AC3F82022394B3A4A1A60384B3F
:102B2C0008221A71364B02229A71354B0322DA7144
:102B3C00334B00229A72324B0022DA72304B002255
:102B4C001A732F4802F056F97B68D3F82002182329
:102B5C000022002103F055FE7B68D3F82002582395
:102B6C000022802103F04DFE7B68D3F820029823CD
:102B7C000022812103F045FE7B68D3F82002D82384
:102B8C000022022103F03DFE7B68D3F820024FF4B3
:102B9C008C730022022103F034FE7B68D3F82002F0
:102BAC004FF4AC730022832103F02BFE7B68D3F827
:102BBC0020024FF4AC730022042103F022FE7B6848
:102BCC00D3F820024FF4CC730022852103F019FEB8
:102BDC007B68D3F820024FF4EC730022052103F03C
:102BEC0010FE7B68D3F820024FF406730022862176
:102BFC0003F007FE002318460837BD4680BD00BF12
:102C0C0078040020005C004080B582B000AF786092
:102C1C007B68D3F82032184602F0E2F900231846FC
:102C2C000837BD4680BD80B582B000AF78600846DD
:102C3C0011461A460346FB700B46BB7013463B808D
:102C4C007B68D3F82002BB783A88F97802F042FB13
:102C5C00002318460837BD4680BD80B582B000AF52
:102C6C0078600B46FB707B68D3F82032FA781146FB
:102C7C00184602F08CFB002318460837BD4680BD71
:102C8C0080B582B000AF78600B46FB707B68D3F8E0
:102C9C002032FA781146184602F029FC0023184617
:102CAC000837BD4680BD80B582B000AF78600B465A
:102CBC00FB707B68D3F82032FA781146184602F084
:102CCC0076FC002318460837BD4680BD80B485B01D
:102CDC0000AF78600B46FB707B68D3F82032FB604A
:102CEC0097F90330002B0BDAFB7803F07F02F968BD
:102CFC0013469B001344DB000B4412331B780BE090
:102D0C00FB7803F07F02F96813469B001344DB0049
:102D1C000B4403F5A9731B7818461437BD4680BCC9
:102D2C00704780B582B000AF78600B46FB707B6853
:102D3C00D3F82032FA781146184602F0A7FA00238D
:102D4C0018460837BD4680BD80B584B000AFF8602A
:102D5C007A601A460B46FB7213463B81FB68D3F82C
:102D6C0020023B89F97A7A6802F08AFB0023184624
:102D7C001037BD4680BD80B584B000AFF8607A6076
:102D8C001A460B46FB7213463B81FB68D3F82002B4
:102D9C003B89F97A7A6802F042FB00231846103717
:102DAC00BD4680BD80B483B000AF7860024B18463E
:102DBC000C37BD4680BC70475007002080B483B0F0
:102DCC0000AF786000BF0C37BD4680BC704780B444
:102DDC0083B000AF78600B46FB7000BF0C37BD466C
:102DEC0080BC704780B400AF034B044A1A600023C8
:102DFC001846BD4680BC70476C070020540200206A
:102E0C0080B400AF00231846BD4680BC704700005C
:102E1C0080B485B000AF03460A46FB711346BB7104
:102E2C000C4B1B68D3F81832BB600023FB7308E013
:102E3C00FA7BFB7BB968895C074AD154FB7B013375
:102E4C00FB73FB7B072BF3D9002318461437BD46C5
:102E5C0080BC70476C0700204C02002080B483B00B
:102E6C0000AF03463960FB713B6812221A80034B9A
:102E7C0018460C37BD4680BC704700BF340000209C
:102E8C0080B483B000AF03463960FB713B68042209
:102E9C001A80034B18460C37BD4680BC704700BFE8
:102EAC004800002080B582B000AF03463960FB714A
:102EBC00FB79002B05D13A680749084808F019F945
:102ECC0004E03A680449054808F013F9024B184627
:102EDC000837BD4680BD00BF700700202CB300082A
:102EEC0080B582B000AF03463960FB713A68044983
:102EFC00044808F0FEF8024B18460837BD4680BD62
:102F0C007007002038B3000880B582B000AF0346CC
:102F1C003960FB71FB79002B05D13A6807490848E9
:102F2C0008F0E7F804E03A680449054808F0E1F8CD
:102F3C00024B18460837BD4680BD00BF7007002005
:102F4C0044B3000880B582B000AF03463960FB7112
:102F5C00FB79002B05D13A680749084808F0C9F8F5
:102F6C0004E03A680449054808F0C3F8024B1846D7
:102F7C000837BD4680BD00BF7007002054B3000861
:102F8C0080B582B000AF03463960FB71FB79002B32
:102F9C0005D13A680749084808F0ABF804E03A68EC
:102FAC000449054808F0A5F8024B18460837BD46F9
:102FBC0080BD00BF7007002068B3000880B400AF6C
:102FCC00524B534A1A60514B4FF480429A804F4BEC
:102FDC0000229A714D4B4E4A9A604C4B4FF4004272
:102FEC009A814A4B00229A73484B494A1A61474BC3
:102FFC004FF480529A82454B00229A75434B444AB7
:10300C009A61424B4FF400529A83404B00229A77BC
:10301C003E4B404A1A623D4B4FF400729A843B4B34
:10302C00002283F82620394B3A4A9A62374B1022F9
:10303C009A85364B002283F82E20344B344A1A637F
:10304C00324B40229A86314B002283F836202F4B8C
:10305C002F4A9A632D4B80229A872C4B002283F89F
:10306C003E202A4B2A4A1A64284B4FF40072A3F8CC
:10307C004420264B002283F84620244B244A9A6491
:10308C00224B4FF48072A3F84C20204B002283F883
:10309C004E201E4B00221A651C4B0022A3F8542014
:1030AC001A4B002283F85620184B194A9A65174B75
:1030BC000822A3F85C20154B002283F85E20134BEA
:1030CC00134A1A66114B1022A3F864200F4B0022EE
:1030DC0083F866200D4B0F4A9A660C4B4FF4004256
:1030EC00A3F86C20094B002283F86E20074B084A8A
:1030FC001A67064B2022A3F87420044B002283F895
:10310C00762000BFBD4680BC704700BF90090020F0
:10311C00000C01400008014080B400AF1D4B0022A0
:10312C001A601C4B00229A801A4B00229A71194B80
:10313C0000229A60174B00229A81164B00229A7338
:10314C00144B154A1A61134B01229A82114B00221F
:10315C009A75104B104A9A610E4B02229A830D4BB2
:10316C0000229A770B4B0C4A1A620A4B04229A845F
:10317C00084B002283F82620064B074A9A62054B1F
:10318C0008229A85034B002283F82E2000BFBD46EF
:10319C0080BC7047080A00200008014080B400AFD2
:1031AC000A4B00221A60094B00229A80074B00221E
:1031BC009A71064B00229A60044B00229A81034BB1
:1031CC0000229A7300BFBD4680BC7047400A0020A5
:1031DC0080B586B000AF00237B6101233B613B1DB2
:1031EC0000221A605A60C3F8072000233B6026E0D7
:1031FC003B4A7B6952F83330002B1DD0384A7B692F
:10320C0052F8332036497B69DB000B449B88194606
:10321C00104601F0A7FD03463B617B690A2B0BDCD2
:10322C003B69002B0CBF01230023DBB219463A1D6E
:10323C007B6913440A461A707B6901337B617B6995
:10324C000E2BD5DD3B1D184600F0B2F9244B9B6DBF
:10325C00234AB2F85C201146184601F083FD034660
:10326C00002B0CBF01230023DBB23B701C4B1B6EED
:10327C001B4AB2F864201146184601F073FD034650
:10328C00002B0CBF01230023DBB27B70144B9B6E15
:10329C00134AB2F86C201146184601F063FD034640
:1032AC00002B0CBF01230023DBB2BB700C4B1B6F3C
:1032BC000B4AB2F874201146184601F053FD034630
:1032CC00002B0CBF01230023DBB2FB70387879781C
:1032DC00BA78FB7800F052FA00BF1837BD4680BDB3
:1032EC009009002080B584B002AF774B93F9003081
:1032FC00012B40F0E580754BB3F900309AB2744B5A
:10330C001B88D31A9BB2FB80724BB3F900309AB274
:10331C00714B1B88D31A9BB2BB80704BB3F9003036
:10332C009AB26F4B1B88D31A9BB27B806D4BB3F94F
:10333C0000309AB26C4B1B88D31A9BB23B80B7F906
:10334C000630002BB8BF5B429BB2312B01D8002357
:10335C00FB80B7F90430002BB8BF5B429BB2312B1A
:10336C0001D80023BB80B7F90230002BB8BF5B42F9
:10337C009BB2312B01D800237B80B7F90030002B96
:10338C00B8BF5B429BB2312B01D800233B80B7F90D
:10339C000630B3F5006F02DB40F2FF73FB80B7F928
:1033AC00063013F5006F02DC4FF60103FB80B7F912
:1033BC000430B3F5006F02DB40F2FF73BB80B7F94A
:1033CC00043013F5006F02DC4FF60103BB80B7F934
:1033DC000230B3F5006F02DB40F2FF737B80B7F96C
:1033EC00023013F5006F02DC4FF601037B80B7F956
:1033FC000030B3F5006F02DB40F2FF733B80B7F98E
:10340C00003013F5006F02DC4FF601033B804FF4E4
:10341C008071364801F0A6FC0346012B01D1002235
:10342C0000E0FF22324B1A804FF480612F4801F0EC
:10343C0099FC0346012B01D1002200E0FF222D4B09
:10344C001A80B7F9060047F6FF7300932A4B40F237
:10345C00FD722A4900F090F803461AB2284B1A80E4
:10346C00B7F9040047F6FF730093234B234A40F24D
:10347C00FD7100F081F803461AB2224B1A80B7F99D
:10348C00020047F6FF7300931B4B40F2FF721B497F
:10349C0000F072F803461AB21B4B1A80B7F9000001
:1034AC0047F6FF730093144B144A40F2FF7100F07F
:1034BC0063F803461AB2154B1A80034B00221A709C
:1034CC0000BF0837BD4680BD780900207409002074
:1034DC008609002076090020880900207009002048
:1034EC008A090020720900208C0900200008014084
:1034FC007A0900207C0900200080FFFF01F8FFFF03
:10350C0082090020840900207E0900208009002007
:10351C0080B500AF064BB3F90030DBB2054AB2F907
:10352C000020D2B21146184600F076F900BF80BDDB
:10353C007A0900207C09002080B500AF0A4BB3F952
:10354C0000300A4AB2F900201946122000F07AF92C
:10355C00074BB3F90030074AB2F900201946132083
:10356C0000F070F900BF80BD7E09002080090020AA
:10357C00820900208409002080B485B000AFF86077
:10358C00B9607A603B60FA68BB68D31AB9693A686B
:10359C008A1A03FB02F27968BB68CB1A92FBF3F22E
:1035AC003B68134418461437BD4680BC7047000076
:1035BC0080B483B000AF78607B681B78002B07D099
:1035CC006D4BDB7843F01003DAB26B4BDA7006E02C
:1035DC00694BDB7823F01003DAB2674BDA707B6847
:1035EC0001331B78002B07D0634BDB7843F02003AF
:1035FC00DAB2614BDA7006E05F4BDB7823F0200324
:10360C00DAB25D4BDA707B6802331B78002B07D083
:10361C00594BDB7843F04003DAB2574BDA7006E0D3
:10362C00554BDB7823F04003DAB2534BDA707B68EE
:10363C0003331B78002B07D04F4BDB7863F07F03F1
:10364C00DAB24D4BDA7006E04B4BDB7803F07F03BC
:10365C00DAB2494BDA707B6804331B78002B07D045
:10366C00454BDB7843F00103DAB2434BDA7006E0EA
:10367C00414BDB7823F00103DAB23F4BDA707B6805
:10368C0005331B78002B07D03B4BDB7843F0020350
:10369C00DAB2394BDA7006E0374BDB7823F00203F1
:1036AC00DAB2354BDA707B6806331B78002B07D007
:1036BC00314B9B7843F04003DAB22F4B9A7006E003
:1036CC002D4B9B7823F04003DAB22B4B9A707B681E
:1036DC0007331B78002B07D0274B9B7863F07F03B5
:1036EC00DAB2254B9A7006E0234B9B7803F07F03EC
:1036FC00DAB2214B9A707B6808331B78002B07D009
:10370C001D4B9B7843F01003DAB21B4B9A7006E00A
:10371C00194B9B7823F01003DAB2174B9A707B6825
:10372C0009331B78002B07D0134B9B7843F02003F5
:10373C00DAB2114B9A7006E00F4B9B7823F0200302
:10374C00DAB20D4B9A707B680A331B78002B07D0CA
:10375C00094BDB7843F00403DAB2074BDA7006E06E
:10376C00054BDB7823F00403DAB2034BDA7000BFAD
:10377C000C37BD4680BC70474C00002090B482B022
:10378C0000AF0446084611461A462346FB71034611
:10379C00BB710B467B7113463B711E4B9B7823F020
:1037AC000F03DAB21B4B9A70FB79002B06D0194B26
:1037BC009B7843F00103DAB2164B9A70BB79002B5D
:1037CC0009D0FB79002B06D1124B9B7843F00203F6
:1037DC00DAB2104B9A707B79002B09D03B79002B15
:1037EC0006D10C4B9B7843F00403DAB2094B9A7068
:1037FC003B79002B09D07B79002B06D1054B9B78AC
:10380C0043F00803DAB2034B9A7000BF0837BD4689
:10381C0090BC70474C00002080B483B000AF0346CE
:10382C000A46FB711346BB71054AFB791371044AB6
:10383C00BB79537100BF0C37BD4680BC704700BFCD
:10384C004C00002080B483B000AF0346FB710B46E4
:10385C00BB8013467B80FB79122B14D1BB88DAB268
:10386C00174B9A71B7F904301B12DAB2144BDA7198
:10387C007B88DAB2124B1A72B7F902301B12DAB229
:10388C000F4B5A7216E0FB79132B13D1BB88DAB2AB
:10389C000B4B9A72B7F904301B12DAB2084BDA727E
:1038AC007B88DAB2064B1A73B7F902301B12DAB204
:1038BC00034B5A7300BF0C37BD4680BC704700BF2A
:1038CC004C000020FFF72CF80B480C490C4A002345
:1038DC0002E0D458C4500433C4188C42F9D3094ABA
:1038EC00094C002301E013600432A242FBD307F021
:1038FC00E7FCFEF73BFC704700000020580100205D
:10390C0048B4000858010020580A0020FEE70000C7
:10391C0080B500AF084B1B68074A43F010031360D7
:10392C00032000F06BFE0F2000F008F8FEF7D2FE2B
:10393C000023184680BD00BF0020024080B582B035
:10394C0000AF7860124B1A68124B1B7819464FF473
:10395C007A73B3FBF1F3B2FBF3F3184600F083FE7A
:10396C000346002B01D001230EE07B680F2B0AD8F5
:10397C00002279684FF0FF3000F04BFE064A7B685E
:10398C001360002300E0012318460837BD4680BDB4
:10399C0000000020640000206000002080B400AF14
:1039AC00054B1B781A46054B1B681344034A1360DE
:1039BC0000BFBD4680BC704764000020500A002048
:1039CC0080B400AF024B1B681846BD4680BC7047E4
:1039DC00500A002080B586B000AF78600023FB75DC
:1039EC0000233B610023BB600023FB607B68002B42
:1039FC0001D10123BEE07B689B68002B7B689B6A2E
:103A0C00002B09D17B680022DA627B68002283F8E4
:103A1C0024207868FEF790FE786800F073FC03466B
:103A2C00FB757B689B6A03F01003002B40F09980B8
:103A3C00FB7D002B40F095807B689B6A23F48853B8
:103A4C0023F0020343F002027B689A627B685A6897
:103A5C007B68DB691A437B681B7B5B001343BA688A
:103A6C001343BB607B689B68B3F5807F03D07B6896
:103A7C009B68012B02D14FF4807300E000233A695C
:103A8C0013433B617B681B7D012B19D17B681B7B2E
:103A9C00002B09D17B689B69013B5A033B6913439B
:103AAC0043F400633B610BE07B689B6A43F02002AC
:103ABC007B689A627B68DB6A43F001027B68DA629E
:103ACC007B681B685B6823F469417B681B683A69F7
:103ADC000A435A607B681B689A68284B13407A68C3
:103AEC001268B9680B4393607B689B68B3F5807F61
:103AFC0003D07B689B68012B04D17B681B69013B5D
:103B0C001B05FB607B681B68DB6A23F470017B6818
:103B1C001B68FA680A43DA627B681B689A68184B60
:103B2C001340BA689A420BD17B680022DA627B6838
:103B3C009B6A23F0030343F001027B689A6218E04E
:103B4C007B689B6A23F0120343F010027B689A6235
:103B5C007B68DB6A43F001027B68DA620123FB7548
:103B6C0007E07B689B6A43F010027B689A62012332
:103B7C00FB75FB7D18461837BD4680BDFDF7E1FF90
:103B8C00FE0E1FFF80B584B000AF78600023FB737E
:103B9C007B6893F82430012B01D10223A0E07B68D1
:103BAC00012283F82420786800F052FB0346FB7353
:103BBC00FB7B002B40F08F807B689B6A23F4706347
:103BCC0023F0010343F480727B689A627B681B6864
:103BDC00454A934205D1454B5B6803F47023002B97
:103BEC0015D17B689B6A23F480127B689A627B6890
:103BFC001B685B6803F48063002B26D07B689B6A90
:103C0C0023F4405343F480527B689A621DE07B6836
:103C1C009B6A43F480127B689A627B681B68334A08
:103C2C00934204D07B681B682F4A93420DD12F4BD3
:103C3C005B6803F48063002B07D07B689B6A23F4DA
:103C4C00405343F480527B689A627B689B6A03F40E
:103C5C008053002B06D07B68DB6A23F006027B685E
:103C6C00DA6202E07B680022DA627B68002283F869
:103C7C0024207B681B686FF002021A607B681B684B
:103C8C005A687B681B6842F020025A607B681B688C
:103C9C009B6803F46023B3F5602F13D17B681B681A
:103CAC00114A934205D1114B5B6803F47023002B2E
:103CBC0008D17B681B689A687B681B6842F4A00279
:103CCC009A600CE07B681B689A687B681B6842F4FE
:103CDC0080129A6003E07B68002283F82420FB7B2F
:103CEC0018461037BD4680BD002801400024014015
:103CFC0080B586B000AFF860B9607A600023FB75C0
:103D0C00FB681B68644A934204D0FB681B68634AD7
:103D1C00934206D1604B5B6803F47023002B40F098
:103D2C00B380FB6893F82430012B01D10223AEE061
:103D3C00FB68012283F82420F86800F089FA034616
:103D4C00FB75FB7D002B40F09A80FB689B6A23F48B
:103D5C00706323F0010343F48072FB689A62FB6882
:103D6C001B684E4A934205D14B4B5B6803F470239E
:103D7C00002B15D1FB689B6A23F48012FB689A62B6
:103D8C00FB681B685B6803F48063002B26D0FB6820
:103D9C009B6A23F4405343F48052FB689A621DE003
:103DAC00FB689B6A43F48012FB689A62FB681B6891
:103DBC00394A934204D0FB681B68384A93420DD1B0
:103DCC00354B5B6803F48063002B07D0FB689B6A60
:103DDC0023F4405343F48052FB689A62FB689B6A5D
:103DEC0003F48053002B06D0FB68DB6A23F0060239
:103DFC00FB68DA6202E0FB680022DA62FB680022F0
:103E0C0083F82420FB681B6A254A9A62FB681B6AAC
:103E1C00244ADA62FB681B6A234A1A63FB681B6834
:103E2C006FF002021A60FB681B689A68FB681B68DB
:103E3C0042F480729A60FB68186AFB681B684C330A
:103E4C001946BA687B6800F075FCFB681B689B68B8
:103E5C0003F46023B3F5602F08D1FB681B689A68E4
:103E6C00FB681B6842F4A0029A600FE0FB681B68B9
:103E7C009A68FB681B6842F480129A6006E0FB6843
:103E8C00002283F8242001E00123FB75FB7D1846FA
:103E9C001837BD4680BD00BF0024014000280140FA
:103EAC00934300080F4400082B44000880B584B0ED
:103EBC0000AF78607B681B681B68FB607B681B68C5
:103ECC005B68BB60BB6803F02003002B3ED0FB6833
:103EDC0003F00203002B39D07B689B6A03F01003BC
:103EEC00002B05D17B689B6A43F400727B689A6255
:103EFC007B681B689B6803F46023B3F5602F1DD1AE
:103F0C007B681B7B002B19D17B681B685A687B680C
:103F1C001B6822F020025A607B689B6A23F4807233
:103F2C007B689A627B689B6A03F48053002B05D1F3
:103F3C007B689B6A43F001027B689A627868FEF7A3
:103F4C003FFB7B681B686FF012021A60BB6803F0C2
:103F5C008003002B4DD0FB6803F00403002B48D0EA
:103F6C007B689B6A03F01003002B05D17B689B6A6E
:103F7C0043F400527B689A627B681B689B6803F46D
:103F8C00E043B3F5E04F12D07B681B685B6803F429
:103F9C008063002B25D17B681B689B6803F460232E
:103FAC00B3F5602F1DD17B681B7B002B19D17B686F
:103FBC001B685A687B681B6822F080025A607B6819
:103FCC009B6A23F480527B689A627B689B6A03F439
:103FDC008073002B05D17B689B6A43F001027B68E0
:103FEC009A62786800F035FA7B681B686FF00C02F7
:103FFC001A60BB6803F04003002B12D0FB6803F07F
:10400C000103002B0DD07B689B6A43F480327B68E4
:10401C009A62786800F012F87B681B686FF00102F6
:10402C001A6000BF1037BD4680BD80B483B000AFAE
:10403C00786000BF0C37BD4680BC704780B483B03D
:10404C0000AF786000BF0C37BD4680BC704780B4B1
:10405C0083B000AF786000BF0C37BD4680BC7047A2
:10406C0080B485B000AF786039600023FB73002307
:10407C00BB607B6893F82430012B01D10223DCE078
:10408C007B68012283F824203B685B68062B1CD8D4
:10409C007B681B68596B3B685A6813469B0013443A
:1040AC00053B1F2202FA03F3DB4319403B681868F7
:1040BC003B685A6813469B001344053B00FA03F215
:1040CC007B681B680A435A633CE03B685B680C2BBB
:1040DC001CD87B681B68196B3B685A6813469B009D
:1040EC001344233B1F2202FA03F3DB4319403B68C2
:1040FC0018683B685A6813469B001344233B00FA2C
:10410C0003F27B681B680A431A631BE07B681B681D
:10411C00D96A3B685A6813469B001344413B1F22E3
:10412C0002FA03F3DB4319403B6818683B685A6892
:10413C0013469B001344413B00FA03F27B681B6857
:10414C000A43DA623B681B68092B1CD97B681B6825
:10415C00D9683B681A6813465B0013441E3B072260
:10416C0002FA03F3DB4319403B6898683B681A6812
:10417C0013465B0013441E3B00FA03F27B681B687A
:10418C000A43DA6019E07B681B6819693B681A6896
:10419C0013465B001344072202FA03F3DB43194076
:1041AC003B6898683B681A6813465B00134400FA36
:1041BC0003F27B681B680A431A613B681B68102B6F
:1041CC0003D03B681B68112B32D17B681B681D4ADE
:1041DC00934225D17B681B689B6803F40003002B7A
:1041EC0026D17B681B689A687B681B6842F40002C6
:1041FC009A603B681B68102B1AD1134B1B68134A2F
:10420C00A2FB03239A0C13469B0013445B00BB6078
:10421C0002E0BB68013BBB60BB68002BF9D107E037
:10422C007B689B6A43F020027B689A620123FB73D4
:10423C007B68002283F82420FB7B18461437BD468C
:10424C0080BC7047002401400000002083DE1B432B
:10425C0080B584B000AF78600023FB600023BB60A6
:10426C007B681B689B6803F00103012B40D07B68C3
:10427C001B689A687B681B6842F001029A601F4BAE
:10428C001B681F4AA2FB03239B0CBB6002E0BB68AC
:10429C00013BBB60BB68002BF9D1FFF791FBF860C9
:1042AC001FE0FFF78DFB0246FB68D31A022B18D9CF
:1042BC007B681B689B6803F00103012B11D07B68A2
:1042CC009B6A43F010027B689A627B68DB6A43F05E
:1042DC0001027B68DA627B68002283F824200123C8
:1042EC0007E07B681B689B6803F00103012BD8D1A6
:1042FC00002318461037BD4680BD00BF00000020CB
:10430C0083DE1B4380B584B000AF78600023FB6074
:10431C007B681B689B6803F00103012B2ED17B6823
:10432C001B689A687B681B6822F001029A60FFF791
:10433C0047FBF8601BE0FFF743FB0246FB68D31A10
:10434C00022B14D97B681B689B6803F00103012BBB
:10435C000DD17B689B6A43F010027B689A627B6884
:10436C00DB6A43F001027B68DA62012307E07B68B9
:10437C001B689B6803F00103012BDCD0002318465B
:10438C001037BD4680BD80B584B000AF78607B68C7
:10439C005B6AFB60FB689B6A03F05003002B27D120
:1043AC00FB689B6A43F40072FB689A62FB681B68AB
:1043BC009B6803F46023B3F5602F15D1FB681B7B5E
:1043CC00002B11D1FB689B6A23F48072FB689A6204
:1043DC00FB689B6A03F48053002B05D1FB689B6A36
:1043EC0043F00102FB689A62F868FEF7E9F804E012
:1043FC00FB681B6A1B6B7868984700BF1037BD467B
:10440C0080BD80B584B000AF78607B685B6AFB6070
:10441C00F868FFF70AFE00BF1037BD4680BD80B5B7
:10442C0084B000AF78607B685B6AFB60FB689B6A5A
:10443C0043F04002FB689A62FB68DB6A43F00402BB
:10444C00FB68DA62F868FFF702FE00BF1037BD4662
:10445C0080BD80B483B000AF786000BF0C37BD4620
:10446C0080BC704780B485B000AF78607B6803F087
:10447C000703FB600C4BDB68BB60BA684FF6FF03AD
:10448C001340BB60FB681A02BB68134343F0BF6365
:10449C0043F40033BB60044ABB68D36000BF1437DD
:1044AC00BD4680BC704700BF00ED00E080B400AF9B
:1044BC00044BDB681B0A03F007031846BD4680BC9F
:1044CC00704700BF00ED00E080B483B000AF03463E
:1044DC00FB7197F90730002B0BDBFB7903F01F0204
:1044EC00064997F907305B09012000FA02F241F8FE
:1044FC00232000BF0C37BD4680BC704700E100E0B4
:10450C0080B483B000AF03463960FB7197F9073074
:10451C00002B0ADB3B68DAB20C4997F90730120121
:10452C00D2B20B4483F800230AE03B68DAB20849A4
:10453C00FB7903F00F03043B1201D2B20B441A7641
:10454C0000BF0C37BD4680BC704700BF00E100E0E7
:10455C0000ED00E080B489B000AFF860B9607A601B
:10456C00FB6803F00703FB61FB69C3F10703042B32
:10457C0028BF0423BB61FB690433062B02D9FB69FA
:10458C00033B00E000237B614FF0FF32BB6902FA72
:10459C0003F3DA43BB681A407B699A404FF0FF3152
:1045AC007B6901FA03F3D9437B680B40134318462C
:1045BC002437BD4680BC704780B582B000AF7860B0
:1045CC007B68013BB3F1807F01D301230FE00A4AE2
:1045DC007B68013B53600F214FF0FF30FFF790FFDA
:1045EC00054B00229A60044B07221A6000231846E0
:1045FC000837BD4680BD00BF10E000E080B582B03A
:10460C0000AF78607868FFF72DFF00BF0837BD4614
:10461C0080BD80B586B000AF0346B9607A60FB738D
:10462C0000237B61FFF742FF78617A68B96878698B
:10463C00FFF790FF024697F90F3011461846FFF727
:10464C005FFF00BF1837BD4680BD80B582B000AF9C
:10465C000346FB7197F907301846FFF735FF00BF8B
:10466C000837BD4680BD80B582B000AF78607868F1
:10467C00FFF7A2FF034618460837BD4680BD000071
:10468C0080B485B000AF78600023FB607B68002BA2
:10469C0001D1012343E07B681B681A46224B13446B
:1046AC00224AA2FB03231B099A007B681A647B68CD
:1046BC001F4ADA637B68022283F821207B681B681F
:1046CC001B68FB60FB6823F47F5323F03003FB6013
:1046DC007B685A687B689B681A437B68DB681A4363
:1046EC007B681B691A437B685B691A437B689B690F
:1046FC001A437B68DB691343FA681343FB607B68DE
:10470C001B68FA681A607B6800229A637B68012236
:10471C0083F821207B68002283F820200023184690
:10472C001437BD4680BC7047F8FFFDBFCDCCCCCC58
:10473C000000024080B586B000AFF860B9607A60C6
:10474C003B600023FB75FB6893F82030012B01D1F3
:10475C0002234BE0FB68012283F82020FB6893F8CE
:10476C002130DBB2012B3AD1FB68022283F82120E5
:10477C00FB6800229A63FB681B681A68FB681B685D
:10478C0022F001021A603B687A68B968F86800F098
:10479C0037F9FB68DB6A002B08D0FB681B681A68CA
:1047AC00FB681B6842F00E021A600FE0FB681B6886
:1047BC001A68FB681B6822F004021A60FB681B680D
:1047CC001A68FB681B6842F00A021A60FB681B68D7
:1047DC001A68FB681B6842F001021A6005E0FB686E
:1047EC00002283F820200223FB75FB7D1846183726
:1047FC00BD4680BD80B584B000AF78607B68DB6B54
:10480C001B68FB607B681B681B68BB607B681B6C50
:10481C0004229A40FB681340002B4FD0BB6803F076
:10482C000403002B4AD07B681B681B6803F0200331
:10483C00002B07D17B681B681A687B681B6822F009
:10484C0004021A607B681B68664A934229D07B6815
:10485C001B68654A934222D07B681B68634A93426B
:10486C001AD07B681B68624A934212D07B681B6823
:10487C00604A93420AD07B681B685F4A934202D11C
:10488C004FF480030EE04FF080630BE04FF4802375
:10489C0008E04FF4804305E04FF4806302E04023CE
:1048AC0000E00423554A53607B68DB6A002B00F060
:1048BC0094807B68DB6A786898478EE07B681B6C19
:1048CC0002229A40FB681340002B56D0BB6803F0C1
:1048DC000203002B51D07B681B681B6803F020037C
:1048EC00002B0BD17B681B681A687B681B6822F055
:1048FC000A021A607B68012283F821207B681B68FE
:10490C00384A934229D07B681B68374A934222D09D
:10491C007B681B68354A93421AD07B681B68344A03
:10492C00934212D07B681B68324A93420AD07B6850
:10493C001B68314A934202D14FF400130EE04FF042
:10494C0000730BE04FF4003308E04FF4005305E024
:10495C004FF4007302E0202300E00223274A536047
:10496C007B68002283F820207B689B6A002B34D064
:10497C007B689B6A786898472FE07B681B6C0822E1
:10498C009A40FB681340002B28D0BB6803F0080347
:10499C00002B23D07B681B681A687B681B6822F08D
:1049AC000E021A607B681A6C7B68DB6B012101FAC2
:1049BC0002F25A607B6801229A637B68012283F8B9
:1049CC0021207B68002283F820207B681B6B002B46
:1049DC0004D07B681B6B7868984700BF00BF10370A
:1049EC00BD4680BD080002401C0002403000024061
:1049FC0044000240580002406C000240000002409B
:104A0C0080B485B000AFF860B9607A603B60FB6839
:104A1C001A6CFB68DB6B012101FA02F25A60FB682D
:104A2C001B683A685A60FB685B68102B08D1FB68FE
:104A3C001B687A689A60FB681B68BA68DA6007E0E2
:104A4C00FB681B68BA689A60FB681B687A68DA6056
:104A5C0000BF1437BD4680BC7047000080B48BB0DB
:104A6C0000AF7860396000237B6200233B6269E110
:104A7C0001227B6A02FA03F3FB613B681B68FA694B
:104A8C001340BB61BA69FB699A4240F058813B689C
:104A9C005B689A4A93425ED0984A934275D8984A7A
:104AAC00934258D0964A93426FD8964A934252D02A
:104ABC00944A934269D8944A93424CD0924A934276
:104ACC0063D8924A934246D0904A93425DD8122BB7
:104ADC002AD8122B59D801A252F823F0634B0008A4
:104AEC003D4B00084F4B0008914B0008974B0008BA
:104AFC00974B0008974B0008974B0008974B000802
:104B0C00974B0008974B0008974B0008974B0008F1
:104B1C00974B0008974B0008974B0008974B0008E1
:104B2C00454B0008594B0008794A934213D02CE0AE
:104B3C003B68DB683B6229E03B68DB6804333B6223
:104B4C0024E03B68DB6808333B621FE03B68DB68B2
:104B5C000C333B621AE03B689B68002B02D10423A8
:104B6C003B6213E03B689B68012B05D108233B6239
:104B7C007B68FA691A6109E008233B627B68FA6971
:104B8C005A6103E000233B6200E000BFBB69FF2BCE
:104B9C0001D87B6801E07B6804337B61BB69FF2B28
:104BAC0002D87B6A9B0002E07B6A083B9B003B615E
:104BBC007B691A680F213B6901FA03F3DB431A4046
:104BCC00396A3B6901FA03F31A437B691A603B6843
:104BDC005B6803F08053002B00F0B1804D4B9B6958
:104BEC004C4A43F0010393614A4B9B6903F0010368
:104BFC00BB60BB68484A7B6A9B08023352F823307F
:104C0C00FB607B6A03F003039B000F2202FA03F3A1
:104C1C00DB43FA681340FB607B68404A934213D035
:104C2C007B683F4A93420DD07B683E4A934207D043
:104C3C007B683D4A934201D1032306E0042304E040
:104C4C00022302E0012300E000237A6A02F003024F
:104C5C0092009340FA681343FB602F497B6A9B08D0
:104C6C000233FA6841F823203B685B6803F4801335
:104C7C00002B06D02D4B9A682C49BB6913438B60D3
:104C8C0006E02A4B9A68BB69DB43284913408B60CA
:104C9C003B685B6803F40013002B06D0234BDA68E7
:104CAC002249BB691343CB6006E0204BDA68BB6931
:104CBC00DB431E491340CB603B685B6803F4003355
:104CCC00002B06D0194B5A681849BB6913434B602B
:104CDC0006E0164B5A68BB69DB43144913404B6022
:104CEC003B685B6803F48033002B21D00F4B1A68B0
:104CFC000E49BB6913430B6021E000BF000032106A
:104D0C0000003110000022100000211000001210D1
:104D1C00000011100010024000000140000801408A
:104D2C00000C01400010014000140140000401403F
:104D3C000B4B1A68BB69DB43094913400B607B6A58
:104D4C0001337B623B681A687B6A22FA03F3002BFF
:104D5C007FF48EAE00BF00BF2C37BD4680BC7047C1
:104D6C000004014080B485B000AF78600B467B80B6
:104D7C007B689A687B881340002B02D00123FB735D
:104D8C0001E00023FB73FB7B18461437BD4680BC47
:104D9C00704780B483B000AF78600B467B801346BD
:104DAC007B707B78002B03D07A887B681A6103E0D8
:104DBC007B881A047B681A6100BF0C37BD4680BC27
:104DCC00704780B485B000AF78600B467B807B6801
:104DDC00DB68FB607A88FB6813401A04FB68D943D4
:104DEC007B880B401A437B681A6100BF1437BD46A1
:104DFC0080BC704780B584B000AF78607B68002BB6
:104E0C0001D10123E8E07B6893F89132DBB2002BEF
:104E1C0006D17B68002283F890227868FDF7AAFD02
:104E2C007B68032283F891227B6800225A717B688D
:104E3C001B68184602F0D1FD7B6818687B68043348
:104E4C000ECB02F0A7FD0346002B05D07B68022297
:104E5C0083F891220123BFE07B681B680021184670
:104E6C0002F0D5FD0346002B05D07B68022283F8A7
:104E7C0091220123B0E00023FB733EE0FA7B7968BA
:104E8C0013469B001344DB000B44113301221A70B0
:104E9C00FA7B796813469B001344DB000B441033F8
:104EAC00FA7B1A70FA7B796813469B001344DB007B
:104EBC000B44133300221A70FA7B796813469B005B
:104ECC001344DB000B44203300221A60FA7B796810
:104EDC0013469B001344DB000B44243300221A605E
:104EEC00FB7B79685A1C13469B001344DB000B4474
:104EFC0000221A60FB7B0133FB737B681B79FA7B06
:104F0C009A42BBD30023FB7344E0FA7B79681346C7
:104F1C009B001344DB000B4403F2511300221A7064
:104F2C00FA7B796813469B001344DB000B4403F5B2
:104F3C00A873FA7B1A70FA7B796813469B001344AA
:104F4C00DB000B4403F2531300221A70FA7B7968CE
:104F5C0013469B001344DB000B4403F5B073002293
:104F6C001A60FA7B796813469B001344DB000B44F0
:104F7C0003F5B27300221A60FA7B796813469B0022
:104F8C001344DB000B4403F5B47300221A60FB7B63
:104F9C000133FB737B681B79FA7B9A42B5D37B6830
:104FAC0018687B6804330ECB02F03DFD0346002BE2
:104FBC0005D07B68022283F8912201230CE07B68E8
:104FCC0000225A737B68012283F891227B681B684C
:104FDC00184604F0BCFF002318461037BD4680BDB0
:104FEC0080B582B000AF78607B6893F89032012B6B
:104FFC0001D1022316E07B68012283F890227B68A2
:10500C001B68184602F0D3FC01217868FDF7DFFE1F
:10501C007B681B68184604F090FF7B68002283F8BD
:10502C009022002318460837BD4680BD80B588B055
:10503C0000AF78607B681B68184604F092FFB8617B
:10504C00BB6903F40043002B03D0786800F003FB2A
:10505C0019E1BB6903F48063002B13D07B681B68D8
:10506C00B3F844309AB27B681B6822F4806292B227
:10507C00A3F844207868FDF7F8FC0021786800F06C
:10508C0005F900E1BB6903F48043002B0CD07B686D
:10509C001B68B3F844309AB27B681B6822F48042D8
:1050AC0092B2A3F84420EEE0BB6903F40053002B4A
:1050BC000CD07B681B68B3F844309AB27B681B68D1
:1050CC0022F4005292B2A3F84420DCE0BB6903F452
:1050DC008053002B27D07B681B68B3F840309AB202
:1050EC007B681B6822F0040292B2A3F840207B6814
:1050FC001B68B3F840309AB27B681B6822F0080238
:10510C0092B2A3F840207868FDF7ECFC7B681B6832
:10511C00B3F844309AB27B681B6822F4805292B286
:10512C00A3F84420AFE0BB6903F40063002B00F04C
:10513C0083800023FB7710E07B681B681A46FB7F9B
:10514C009B001A44FB7F128892B25B0020333B44D5
:10515C0023F8182CFB7F0133FB77FB7F072BEBD954
:10516C007B681B68B3F840309AB27B681B6842F0CE
:10517C00010292B2A3F840207B681B68B3F8403060
:10518C009AB27B681B6822F0010292B2A3F840200D
:10519C0000BF7B681B68B3F844309BB203F4806398
:1051AC00002BF6D07B681B68B3F844309AB27B684E
:1051BC001B6822F4806292B2A3F844200023FB7790
:1051CC000FE0FB7F7A6812681146FA7F92000A445E
:1051DC005B0020333B4433F8183C1380FB7F0133D6
:1051EC00FB77FB7F072BECD97B681B68B3F840304F
:1051FC009AB27B681B6842F0080292B2A3F8402076
:10520C007B681B68B3F844309AB27B681B6822F445
:10521C00006292B2A3F844207B681B68B3F840305C
:10522C009AB27B681B6842F0040292B2A3F8402049
:10523C007868FDF73DFC26E0BB6903F40073002B96
:10524C000FD07B681B68B3F844309AB27B681B683C
:10525C0022F4007292B2A3F844207868FDF7F7FBB1
:10526C0011E0BB6903F48073002B0CD07B681B68C6
:10527C00B3F844309AB27B681B6822F4807292B205
:10528C00A3F8442000BF2037BD4680BD80B582B056
:10529C0000AF78600B46FB707B6893F89032012B63
:1052AC0001D1022312E07B68012283F890227B68F3
:1052BC00FA785A737B681B68FA781146184604F022
:1052CC0029FE7B68002283F89022002318460837B9
:1052DC00BD4680BD80B584B000AF786008461146ED
:1052EC001A460346FB700B463B801346BB700023EB
:1052FC00FB7297F90330002B0EDAFB7803F00702F0
:10530C0013469B001344DB0010337A681344FB6094
:10531C00FB6801225A700EE0FB7803F0070213467B
:10532C009B001344DB0003F5A8737A681344FB60FD
:10533C00FB6800225A70FB7803F00703DAB2FB68B3
:10534C001A703A88FB681A61FB68BA78DA70BB7815
:10535C00022B02D1FB6800221A717B6893F8903201
:10536C00012B01D102230EE07B68012283F89022ED
:10537C007B681B68F968184602F072FB7B68002298
:10538C0083F89022FB7A18461037BD4680BD80B555
:10539C0084B000AF78600B46FB7097F90330002B9C
:1053AC000EDAFB7803F0070213469B001344DB0074
:1053BC0010337A681344FB60FB6801225A700EE0CC
:1053CC00FB7803F0070213469B001344DB0003F544
:1053DC00A8737A681344FB60FB6800225A70FB7850
:1053EC0003F00703DAB2FB681A707B6893F890320B
:1053FC00012B01D102230EE07B68012283F890225D
:10540C007B681B68F968184602F0EAFE7B6800228C
:10541C0083F89022002318461037BD4680BD80B516
:10542C0086B000AFF8607A603B600B46FB72FB7A8B
:10543C0003F0070213469B001344DB0003F5A8732B
:10544C00FA6813447B617B697A685A617B693A68B4
:10545C009A617B690022DA617B6900225A70FB7ABF
:10546C0003F00703DAB27B691A70FB681B68796971
:10547C00184603F0A1F8002318461837BD4680BD26
:10548C0080B586B000AFF8607A603B600B46FB726B
:10549C00FB7A03F0070213469B001344DB00103326
:1054AC00FA6813447B617B697A685A617B693A6854
:1054BC009A617B69012283F824207B693A681A621D
:1054CC007B690022DA617B6901225A70FB7A03F056
:1054DC000703DAB27B691A70FB681B687969184696
:1054EC0003F06AF8002318461837BD4680BD80B516
:1054FC0084B000AF78600B46FB70FB7803F00703B9
:10550C007A681279934201D901234CE097F9033060
:10551C00002B0EDAFB7803F0070213469B001344B2
:10552C00DB0010337A681344FB60FB6801225A706D
:10553C000CE0FA7813469B001344DB0003F5A873C8
:10554C007A681344FB60FB6800225A70FB680122E6
:10555C009A70FB7803F00703DAB2FB681A707B6869
:10556C0093F89032012B01D102231CE07B680122BD
:10557C0083F890227B681B68F968184604F0CDFB11
:10558C00FB7803F00703002B08D17B681A687B6853
:10559C0003F526731946104604F0F2FC7B680022D2
:1055AC0083F89022002318461037BD4680BD80B585
:1055BC0084B000AF78600B46FB70FB7803F00F03F0
:1055CC007A681279934201D9012340E097F90330AC
:1055DC00002B0EDAFB7803F0070213469B001344F2
:1055EC00DB0010337A681344FB60FB6801225A70AD
:1055FC000EE0FB7803F0070213469B001344DB001C
:10560C0003F5A8737A681344FB60FB6800225A7098
:10561C00FB6800229A70FB7803F00703DAB2FB6890
:10562C001A707B6893F89032012B01D102230EE0A3
:10563C007B68012283F890227B681B68F968184606
:10564C0004F0BBFB7B68002283F8902200231846F1
:10565C001037BD4680BD80B596B000AF7860BBE317
:10566C007B681B68B3F84430A7F84E30B7F84E305F
:10567C00DBB203F00F0387F84D3097F84D30002B59
:10568C0040F07581B7F84E3003F01003002B4ED16B
:10569C007B681B681B889BB223F4E14323F07003E7
:1056AC00FB817B681A68FB896FEA43436FEA5343BB
:1056BC009BB213807B6810337B657B681B68B3F8E7
:1056CC0050309BB21A467B6D1B78DB0013440233BF
:1056DC005B007A681268134403F580631B88C3F37C
:1056EC0009027B6DDA617B6D5A697B6DDB691A444B
:1056FC007B6D5A6100217868FDF78FF97B685B7BC5
:10570C00DBB2002B00F068837B6D9B69002B40F0B3
:10571C0063837B685B7BDBB263F07F03DAB27B680D
:10572C001B68A3F84C207B6800225A7354E37B68F7
:10573C0003F5A8737B657B681B681B88A7F84A3048
:10574C00B7F84A3003F40063002B34D07B681B6835
:10575C00B3F850309BB21A467B6D1B78DB001344B8
:10576C0006335B007A681268134403F580631B8868
:10577C00C3F309027B6DDA617B6818687B6803F5FB
:10578C0026717B6DDA887B6DDB699BB204F049FC7A
:10579C007B681B681B889AB240F68F7313403B8260
:1057AC007B681B683A8A42F0800292B21A80786851
:1057BC00FDF706F910E3B7F94A30002B80F20C83A1
:1057CC007B681B681B889AB240F68F731340FB836F
:1057DC007B681B68FA8B42F0800292B21A807B685D
:1057EC001B68B3F850309BB21A467B6D1B78DB00FC
:1057FC00134406335B007A681268134403F5806324
:10580C001B88C3F309027B6DDA617B6DDB69002BAE
:10581C0019D07B6D5B69002B15D07B6818687B6D8C
:10582C0059697B6DDA887B6DDB699BB204F0F9FBFF
:10583C007B6D5A697B6DDB691A447B6D5A61002163
:10584C007868FDF7CFF87B681B681B88A7F84A308F
:10585C00B7F84A3003F40063002B40F0BD82B7F870
:10586C004A3003F44053B3F5405F00F0B5827B68D7
:10587C001B68BB617B681B68B3F850309BB21A463F
:10588C00BB691344BB61BB6903F20C437B617B694D
:10589C001B889BB2C3F309039AB27B691A807B6D98
:1058AC001B693E2B1DD97B6D1B695B097B647B6D72
:1058BC001B6903F01F03002B02D17B6C013B7B6443
:1058CC007B691B889AB27B6C9BB29B029BB2134385
:1058DC009BB26FEA43436FEA53439AB27B691A80D7
:1058EC0026E07B6D1B69002B0AD17B691B889BB260
:1058FC006FEA43436FEA53439AB27B691A8017E00D
:10590C007B6D1B695B087B647B6D1B6903F001037A
:10591C00002B02D07B6C01337B647B691B889AB2B1
:10592C007B6C9BB29B029BB213439AB27B691A802D
:10593C007B681B681B889BB223F4804323F07003A5
:10594C007B827B8A83F480537B827B8A83F4005333
:10595C007B827B681A687B8A43F07F4343F47F0326
:10596C0043F4004343F080039BB2138034E27B6822
:10597C001B681A4697F84D309B0013441B88A7F8F8
:10598C004A30B7F94A30002B80F2FC807B681B68E8
:10599C001A4697F84D309B0013441B889AB240F678
:1059AC008F731340A7F848307B681B681A4697F82A
:1059BC004D309B001344B7F8482042F0800292B25D
:1059CC001A8097F84D2013469B001344DB0003F517
:1059DC00A8737A6813447B657B6D1B7B002B25D1E8
:1059EC007B681B68B3F850309BB21A467B6D1B78F2
:1059FC00DB00134406335B007A681268134403F52A
:105A0C0080631B88C3F30903A7F85030B7F85030F4
:105A1C00002B00F092807B6818687B6D59697B6D58
:105A2C00DA88B7F8503004F0FCFA86E07B6DDB784E
:105A3C00022B0AD1B7F84A301A46796D786800F013
:105A4C00D9F90346A7F8503077E07B681B681A46F3
:105A5C007B6D1B789B0013441B889BB223F4E043A3
:105A6C0023F07003A7F852307B681B681A467B6DD5
:105A7C001B789B001A44B7F8523043F07F4343F431
:105A8C007F0343F4004343F0C0039BB213807B6855
:105A9C001B681A467B6D1B789B0013441B889BB2BA
:105AAC0003F48043002B24D07B681B68B3F8503080
:105ABC009BB21A467B6D1B78DB00134402335B00F0
:105ACC007A681268134403F580631B88C3F30903D7
:105ADC00A7F85030B7F85030002B2ED07B681868E0
:105AEC007B6D59697B6D1A89B7F8503004F099FABF
:105AFC0023E07B681B68B3F850309BB21A467B6D71
:105B0C001B78DB00134406335B007A68126813447D
:105B1C0003F580631B88C3F30903A7F85030B7F86B
:105B2C005030002B09D07B6818687B6D59697B6DF0
:105B3C005A89B7F8503004F074FA7B6DDA69B7F80B
:105B4C0050301A447B6DDA617B6D5A69B7F850306E
:105B5C001A447B6D5A617B6D9B69002B05D0B7F89D
:105B6C0050207B6D1B699A4206D27B6D1B781946BF
:105B7C007868FCF737FF05E07B681B68796D184681
:105B8C0002F01AFDB7F84A3003F08003002B00F046
:105B9C00238197F84D2013469B001344DB001033F0
:105BAC007A6813447B657B681B681A4697F84D30FE
:105BBC009B0013441B889BB223F4E14323F0700336
:105BCC00A7F842307B681B681A4697F84D309B004B
:105BDC001A44B7F842306FEA43436FEA53439BB21F
:105BEC0013807B6DDB78012B40F0A2807B6D002253
:105BFC009A617B6D1B7B002B00F09380B7F84A30C9
:105C0C0003F04003002B46D07B6D5B78002B26D134
:105C1C007B681B687B627B681B68B3F850309BB257
:105C2C001A467B6A13447B627B6D1B781A017B6A74
:105C3C00134403F204433B623B6A1B889BB2C3F3DD
:105C4C0009039AB23B6A1A803B6A1B889BB26FEAC3
:105C5C0043436FEA53439AB23B6A1A8061E07B6D0F
:105C6C005B78012B5DD17B681B68FB627B681B68D2
:105C7C00B3F850309BB21A46FB6A1344FB627B6D3F
:105C8C001B781A01FB6A134403F20443BB62BB6A20
:105C9C0000221A8045E07B681B68FB637B6D5B7898
:105CAC00002B26D17B681B687B637B681B68B3F871
:105CBC0050309BB21A467B6B13447B637B6D1B7815
:105CCC001A017B6B134403F20C433B633B6B1B8845
:105CDC009BB2C3F309039AB23B6B1A803B6B1B88D4
:105CEC009BB26FEA43436FEA53439AB23B6B1A8001
:105CFC0017E07B6D5B78012B13D17B681B68B3F8C5
:105D0C0050309BB21A46FB6B1344FB637B6D1B78C4
:105D1C001A01FB6B134403F20C43BB63BB6B0022F5
:105D2C001A807B6D1B7819467868FCF776FE53E079
:105D3C00B7F84A3003F48073002B46D17B681B689C
:105D4C00B3F850309BB21A467B6D1B78DB001344C2
:105D5C0002335B007A681268134403F580631B8876
:105D6C00C3F30903A7F840307B6D9A69B7F840304C
:105D7C009A4207D97B6D9A69B7F84030D21A7B6D7D
:105D8C009A6102E07B6D00229A617B6D9B69002B0E
:105D9C0006D17B6D1B7819467868FCF73EFE1BE03C
:105DAC007B6D5A69B7F840301A447B6D5A617B6D34
:105DBC00DA69B7F840301A447B6DDA617B681B688E
:105DCC00796D184602F0F8FB06E0B7F84A301A462F
:105DDC00796D786800F01BF97B681B68B3F8443068
:105DEC009BB21BB2002BFFF63BAC00231846583776
:105DFC00BD4680BD80B588B000AFF860B960134671
:105E0C00FB80FB8803F48043002B7ED0FB681B686F
:105E1C00B3F850309BB21A46BB681B78DB001344B6
:105E2C0002335B00FA681268134403F580631B8825
:105E3C00C3F309037B83BB689A697B8B9A4206D3B5
:105E4C00BB689A697B8BD21ABB689A6102E0BB680B
:105E5C0000229A61BB689B69002B23D1FB681B68ED
:105E6C001A46BB681B789B0013441B889BB223F417
:105E7C00804323F070033B833B8B83F400533B83C1
:105E8C00FB681B681A46BB681B789B001A443B8B4B
:105E9C0043F07F4343F47F0343F4004343F0800318
:105EAC009BB21380FB8803F04003002B1FD0FB68D0
:105EBC001B681A46BB681B789B0013441B889BB25B
:105ECC0023F4E04323F07003FB82FB681B681A4643
:105EDC00BB681B789B001A44FB8A43F07F4343F456
:105EEC007F0343F4004343F0C0039BB213807B8BCE
:105EFC00002B00F08780FB681868BB685969BB6889
:105F0C001A897B8B04F08DF87CE0FB681B68B3F876
:105F1C0050309BB21A46BB681B78DB001344063327
:105F2C005B00FA681268134403F580631B88C3F3A3
:105F3C0009037B83BB689A697B8B9A4206D3BB6847
:105F4C009A697B8BD21ABB689A6102E0BB6800220B
:105F5C009A61BB689B69002B23D1FB681B681A46AE
:105F6C00BB681B789B0013441B889BB223F48043B3
:105F7C0023F07003FB83FB8B83F40053FB83FB68E0
:105F8C001B681A46BB681B789B001A44FB8B43F0BA
:105F9C007F4343F47F0343F4004343F080039BB2FD
:105FAC001380FB8803F04003002B1FD1FB681B6898
:105FBC001A46BB681B789B0013441B889BB223F4C6
:105FCC00E04323F07003BB83FB681B681A46BB6875
:105FDC001B789B001A44BB8B43F07F4343F47F0335
:105FEC0043F4004343F0C0039BB213807B8B002B24
:105FFC0008D0FB681868BB685969BB685A897B8BE9
:10600C0004F00FF87B8B18462037BD4680BD80B559
:10601C00A4B000AFF860B9601346FB80FB8803F0B6
:10602C004003002B00F0DD81FB681B68B3F8503097
:10603C009BB21A46BB681B78DB00134402335B002F
:10604C00FA681268134403F580631B88C3F30903D1
:10605C00A7F88630BB689A69B7F886309A4207D998
:10606C00BB689A69B7F88630D21ABB689A6102E0AD
:10607C00BB6800229A61BB689B69002B40F0B98019
:10608C00BB685B78002B26D1FB681B68FB62FB6846
:10609C001B68B3F850309BB21A46FB6A1344FB6280
:1060AC00BB681B781A01FB6A134403F20443BB62FE
:1060BC00BB6A1B889BB2C3F309039AB2BB6A1A80F2
:1060CC00BB6A1B889BB26FEA43436FEA53439AB295
:1060DC00BB6A1A801AE0BB685B78012B16D1FB688F
:1060EC001B687B63FB681B68B3F850309BB21A4685
:1060FC007B6B13447B63BB681B781A017B6B13446B
:10610C0003F204433B633B6B00221A80FB681B6861
:10611C007B62BB685B78002B26D1FB681B68FB613C
:10612C00FB681B68B3F850309BB21A46FB691344EA
:10613C00FB61BB681B781A01FB69134403F20C4327
:10614C00BB61BB691B889BB2C3F309039AB2BB69E1
:10615C001A80BB691B889BB26FEA43436FEA5343B7
:10616C009AB2BB691A8017E0BB685B78012B13D11C
:10617C00FB681B68B3F850309BB21A467B6A134419
:10618C007B62BB681B781A017B6A134403F20C43D5
:10619C003B623B6A00221A80BB681B781946F86880
:1061AC00FCF73BFCFB8803F48043002B00F0FC82E3
:1061BC00FB681B681A46BB681B789B0013441B8842
:1061CC009BB223F4E04323F07003FB82FB681B6853
:1061DC001A46BB681B789B001A44FB8A43F07F432A
:1061EC0043F47F0343F4404343F080039BB213809A
:1061FC00DAE2FB8803F48043002B21D0FB681B6898
:10620C001A46BB681B789B0013441B889BB223F473
:10621C00E04323F07003A7F88A30FB681B681A462A
:10622C00BB681B789B001A44B7F88A3043F07F4355
:10623C0043F47F0343F4404343F080039BB2138049
:10624C00BB6893F82430012B40F0AE82BB685A69CE
:10625C00B7F886301A44BB685A61BB68DA69B7F87C
:10626C0086301A44BB68DA61BB681A6ABB681B6962
:10627C009A420BD3BB681B69C7F88C30BB681A6A8F
:10628C00D7F88C30D21ABB681A6217E0BB681B6A4D
:10629C00002B08D1B7F88630C7F88C30BB680022C9
:1062AC0083F824200AE0BB68002283F82420BB6812
:1062BC001B6AC7F88C30BB6800221A62BB685B781B
:1062CC00002B65D1FB681B68FB63FB681B68B3F88C
:1062DC0050309BB21A46FB6B1344FB63BB681B78B4
:1062EC001A01FB6B134403F20443BB63BB6B1B88A7
:1062FC009BB2C3F309039AB2BB6B1A80D7F88C30EC
:10630C003E2B1DD9D7F88C305B09BB64D7F88C3089
:10631C0003F01F03002B02D1BB6C013BBB64BB6BB6
:10632C001B889AB2BB6C9BB29B029BB213439BB271
:10633C006FEA43436FEA53439AB2BB6B1A8044E053
:10634C00D7F88C30002B0AD1BB6B1B889BB26FEA41
:10635C0043436FEA53439AB2BB6B1A8035E0D7F8CC
:10636C008C305B08BB64D7F88C3003F00103002B36
:10637C0002D0BB6C0133BB64BB6B1B889AB2BB6C89
:10638C009BB29B029BB213439AB2BB6B1A801CE06C
:10639C00BB685B78012B18D1FB681B687B64FB68BE
:1063AC001B68B3F850309BB21A467B6C13447B6469
:1063BC00BB681B781A017B6C134403F204433B64E7
:1063CC00D7F88C309AB23B6C1A80FB681868BB68A3
:1063DC005969BB681A89D7F88C309BB203F0DBFD86
:1063EC00E2E1FB681B68B3F850309BB21A46BB68FD
:1063FC001B78DB00134406335B00FA681268134405
:10640C0003F580631B88C3F30903A7F88630BB68C8
:10641C009A69B7F886309A4207D3BB689A69B7F87D
:10642C008630D21ABB689A6102E0BB6800229A617E
:10643C00BB689B69002B40F0C080BB685B78002B6D
:10644C0026D1FB681B68FB67FB681B68B3F85030F0
:10645C009BB21A46FB6F1344FB67BB681B781A018F
:10646C00FB6F134403F20443BB67BB6F1B889BB2E7
:10647C00C3F309039AB2BB6F1A80BB6F1B889BB224
:10648C006FEA43436FEA53439AB2BB6F1A801AE028
:10649C00BB685B78012B16D1FB681B687B66FB68BD
:1064AC001B68B3F850309BB21A467B6E13447B6664
:1064BC00BB681B781A017B6E134403F204433B66E2
:1064CC003B6E00221A80FB681B687B67BB685B789D
:1064DC00002B2BD1FB681B68FB66FB681B68B3F8B1
:1064EC0050309BB21A46FB6E1344FB66BB681B789C
:1064FC001A01FB6E134403F20C43C7F88030D7F833
:10650C0080301B889BB2C3F309039AB2D7F8803052
:10651C001A80D7F880301B889BB26FEA43436FEA2E
:10652C0053439AB2D7F880301A8017E0BB685B7877
:10653C00012B13D1FB681B68B3F850309BB21A4681
:10654C007B6F13447B67BB681B781A017B6F13440A
:10655C0003F20C433B673B6F00221A80BB681B782D
:10656C001946F868FCF759FAFB8803F48043002BB2
:10657C0040F01A81FB681B681A46BB681B789B00AD
:10658C0013441B889BB223F4E04323F07003A7F859
:10659C008830FB681B681A46BB681B789B001A4442
:1065AC00B7F8883043F07F4343F47F0343F4404310
:1065BC0043F080039BB21380F6E0FB8803F4804326
:1065CC00002B21D1FB681B681A46BB681B789B000B
:1065DC0013441B889BB223F4E04323F07003A7F809
:1065EC004E30FB681B681A46BB681B789B001A442C
:1065FC00B7F84E3043F07F4343F47F0343F44043FA
:10660C0043F080039BB21380BB6893F82430012BBA
:10661C0040F0CA80BB685A69B7F886301A44BB6828
:10662C005A61BB68DA69B7F886301A44BB68DA611C
:10663C00BB681A6ABB681B699A420BD3BB681B699F
:10664C00C7F88C30BB681A6AD7F88C30D21ABB6882
:10665C001A6217E0BB681B6A002B08D1B7F88630AA
:10666C00C7F88C30BB68002283F824200AE0BB6892
:10667C001B6AC7F88C30BB6800221A62BB68002208
:10668C0083F82420FB681B687B65BB685B78002B58
:10669C0065D1FB681B68FB65FB681B68B3F8503061
:1066AC009BB21A46FB6D1344FB65BB681B781A0141
:1066BC00FB6D134403F20C43BB65BB6D1B889BB293
:1066CC00C3F309039AB2BB6D1A80D7F88C303E2BFA
:1066DC001DD9D7F88C305B09BB66D7F88C3003F02A
:1066EC001F03002B02D1BB6E013BBB66BB6D1B882D
:1066FC009AB2BB6E9BB29B029BB213439BB26FEAE6
:10670C0043436FEA53439AB2BB6D1A8041E0D7F80A
:10671C008C30002B0AD1BB6D1B889BB26FEA4343B4
:10672C006FEA53439AB2BB6D1A8032E0D7F88C30C3
:10673C005B08BB66D7F88C3003F00103002B02D04A
:10674C00BB6E0133BB66BB6D1B889AB2BB6E9BB232
:10675C009B029BB213439AB2BB6D1A8019E0BB68C3
:10676C005B78012B15D1FB681B68B3F850309BB2DA
:10677C001A467B6D13447B65BB681B781A017B6DD5
:10678C00134403F20C433B65D7F88C309AB23B6D43
:10679C001A80FB681868BB685969BB685A89D7F8B6
:1067AC008C309BB203F0F7FBFB681B681A46BB6886
:1067BC001B789B0013441B889BB223F4E04323F00B
:1067CC004003BB82BB8A83F01003BB82BB8A83F07D
:1067DC002003BB82FB681B681A46BB681B789B00B6
:1067EC001A44BB8A43F07F4343F47F0343F40043D2
:1067FC0043F080039BB21380002318469037BD46AC
:10680C0080BD80B487B000AFF8607B600B467B81A5
:10681C0013463B817B8903F080039BB2002B0BD08A
:10682C007B8903F0070213469B001344DB001033F3
:10683C00FA6813447B6109E07A8913469B00134480
:10684C00DB0003F5A873FA6813447B613B89002BCA
:10685C0007D17B6900221A737B689AB27B69DA8054
:10686C000BE07B6901221A737B689AB27B691A81EF
:10687C007B681B0C9AB27B695A81002318461C3723
:10688C00BD4680BC7047000080B586B000AF786014
:10689C007B68002B01D1012372E27B681B6803F03B
:1068AC000103002B00F08780924B5B6803F00C0314
:1068BC00042B0CD08F4B5B6803F00C03082B12D10C
:1068CC008C4B5B6803F48033B3F5803F0BD1894B61
:1068DC001B6803F40033002B6CD07B685B68002BC7
:1068EC0068D101234CE27B685B68B3F5803F06D12D
:1068FC00804B1B687F4A43F4803313602EE07B6827
:10690C005B68002B0CD17B4B1B687A4A23F48033D9
:10691C001360784B1B68774A23F4802313601DE0C7
:10692C007B685B68B3F5A02F0CD1724B1B68714A66
:10693C0043F4802313606F4B1B686E4A43F480331F
:10694C0013600BE06B4B1B686A4A23F480331360B3
:10695C00684B1B68674A23F4802313607B685B6871
:10696C00002B13D0FDF72CF8386108E0FDF728F860
:10697C0002463B69D31A642B01D9032300E25D4B19
:10698C001B6803F40033002BF0D014E0FDF718F86B
:10699C00386108E0FDF714F802463B69D31A642B02
:1069AC0001D90323ECE1534B1B6803F40033002B98
:1069BC00F0D100E000BF7B681B6803F00203002BE2
:1069CC0063D04C4B5B6803F00C03002B0BD0494B92
:1069DC005B6803F00C03082B1CD1464B5B6803F47B
:1069EC008033002B16D1434B1B6803F00203002BA2
:1069FC0005D07B681B69012B01D00123C0E13D4B05
:106A0C001B6823F0F8027B685B69DB003949134390
:106A1C000B603AE07B681B69002B20D0364B0122BF
:106A2C001A60FCF7CDFF386108E0FCF7C9FF02469D
:106A3C003B69D31A022B01D90323A1E12D4B1B680F
:106A4C0003F00203002BF0D02A4B1B6823F0F80252
:106A5C007B685B69DB00274913430B6015E0264B11
:106A6C0000221A60FCF7ACFF386108E0FCF7A8FFC5
:106A7C0002463B69D31A022B01D9032380E11D4B3B
:106A8C001B6803F00203002BF0D17B681B6803F03A
:106A9C000803002B3AD07B689B69002B19D0174B4D
:106AAC0001221A60FCF78CFF386108E0FCF788FFC4
:106ABC0002463B69D31A022B01D9032360E10D4B2B
:106ACC005B6A03F00203002BF0D0012000F09CFA6B
:106ADC001CE00A4B00221A60FCF772FF38610FE0D1
:106AEC00FCF76EFF02463B69D31A022B08D903232D
:106AFC0046E100BF001002400000424280044242C6
:106B0C00924B5B6A03F00203002BE9D17B681B6894
:106B1C0003F00403002B00F0A6800023FB758B4BC5
:106B2C00DB6903F08053002B0DD1884BDB69874A5E
:106B3C0043F08053D361854BDB6903F08053BB601A
:106B4C00BB680123FB75824B1B6803F48073002B1D
:106B5C0018D17F4B1B687E4A43F480731360FCF79B
:106B6C002FFF386108E0FCF72BFF02463B69D31A74
:106B7C00642B01D9032303E1754B1B6803F4807369
:106B8C00002BF0D07B68DB68012B06D16F4B1B6AA6
:106B9C006E4A43F0010313622DE07B68DB68002B27
:106BAC000CD16A4B1B6A694A23F001031362674BD1
:106BBC001B6A664A23F0040313621CE07B68DB68E3
:106BCC00052B0CD1614B1B6A604A43F00403136222
:106BDC005E4B1B6A5D4A43F0010313620BE05B4B97
:106BEC001B6A5A4A23F001031362584B1B6A574A1B
:106BFC0023F0040313627B68DB68002B15D0FCF7D1
:106C0C00DFFE38610AE0FCF7DBFE02463B69D31A73
:106C1C0041F28832934201D90323B1E04B4B1B6AFA
:106C2C0003F00203002BEED014E0FCF7C9FE386130
:106C3C000AE0FCF7C5FE02463B69D31A41F28832E2
:106C4C00934201D903239BE0404B1B6A03F00203E0
:106C5C00002BEED1FB7D012B05D13C4BDB693B4A74
:106C6C0023F08053D3617B68DB69002B00F08780B5
:106C7C00364B5B6803F00C03082B61D07B68DB6937
:106C8C00022B46D1334B00221A60FCF799FE386177
:106C9C0008E0FCF795FE02463B69D31A022B01D99A
:106CAC0003236DE0294B1B6803F00073002BF0D11C
:106CBC007B681B6AB3F5803F08D1244B5B6823F4D7
:106CCC0000327B689B68214913434B601F4B5B6808
:106CDC0023F474127B68196A7B685B6A0B431B494B
:106CEC0013434B601B4B01221A60FCF769FE3861A1
:106CFC0008E0FCF765FE02463B69D31A022B01D96A
:106D0C0003233DE0114B1B6803F00073002BF0D004
:106D1C0035E0104B00221A60FCF752FE386108E097
:106D2C00FCF74EFE02463B69D31A022B01D9032312
:106D3C0026E0064B1B6803F00073002BF0D11EE01D
:106D4C007B68DB69012B07D1012319E0001002409D
:106D5C0000700040600042420B4B5B68FB60FB68BC
:106D6C0003F480327B681B6A9A4206D1FB6803F4F9
:106D7C0070127B685B6A9A4201D0012300E0002309
:106D8C0018461837BD4680BD0010024080B584B04F
:106D9C0000AF786039607B68002B01D10123D0E013
:106DAC006A4B1B6803F007033A689A4210D9674B89
:106DBC001B6823F0070265493B6813430B60634B68
:106DCC001B6803F007033A689A4201D00123B8E02C
:106DDC007B681B6803F00203002B20D07B681B68C8
:106DEC0003F00403002B05D0594B5B68584A43F45D
:106DFC00E06353607B681B6803F00803002B05D02D
:106E0C00534B5B68524A43F460535360504B5B687E
:106E1C0023F0F0027B689B684D4913434B607B6801
:106E2C001B6803F00103002B40D07B685B68012BCF
:106E3C0007D1474B1B6803F40033002B15D10123FA
:106E4C007FE07B685B68022B07D1414B1B6803F02A
:106E5C000073002B09D1012373E03D4B1B6803F039
:106E6C000203002B01D101236BE0394B5B6823F04B
:106E7C0003027B685B68364913434B60FCF7A0FD4B
:106E8C00F8600AE0FCF79CFD0246FB68D31A41F25D
:106E9C008832934201D9032353E02D4B5B6803F0F6
:106EAC000C027B685B689B009A42EBD1274B1B68FA
:106EBC0003F007033A689A4210D2244B1B6823F064
:106ECC00070222493B6813430B60204B1B6803F0FD
:106EDC0007033A689A4201D0012332E07B681B68B1
:106EEC0003F00403002B08D0194B5B6823F4E06219
:106EFC007B68DB68164913434B607B681B6803F0A7
:106F0C000803002B09D0124B5B6823F460527B689A
:106F1C001B69DB000E4913434B6000F021F802465D
:106F2C000B4B5B681B0903F00F030A49CB5C22FA7D
:106F3C0003F3094A1360094B1B681846FCF7FEFC67
:106F4C00002318461037BD4680BD00BF002002400C
:106F5C00001002401CB4000800000020600000205B
:106F6C0080B487B000AF0023FB600023BB6000231C
:106F7C007B6100237B6000233B611E4B5B68FB60E5
:106F8C00FB6803F00C03042B02D0082B03D027E082
:106F9C00194B3B6127E0FB689B0C03F00F03174A6E
:106FAC00D35C7B60FB6803F48033002B10D0114B57
:106FBC005B685B0C03F00103114AD35CBB607B681C
:106FCC000D4A03FB02F2BB68B2FBF3F37B6104E0F6
:106FDC007B680C4A02FB03F37B617B693B6102E03B
:106FEC00054B3B6100BF3B6918461C37BD4680BC56
:106FFC00704700BF0010024000127A002CB4000849
:10700C003CB4000800093D0080B485B000AF786046
:10701C000A4B1B680A4AA2FB03235B0A7A6802FB31
:10702C0003F3FB6000BFFB685A1EFA60002BF9D11A
:10703C0000BF00BF1437BD4680BC70470000002065
:10704C00D34D621080B586B000AF786000233B61F1
:10705C000023FB607B681B6803F00103002B7DD0D1
:10706C000023FB754F4BDB6903F08053002B0DD1D4
:10707C004C4BDB694B4A43F08053D361494BDB6982
:10708C0003F08053BB60BB680123FB75464B1B6848
:10709C0003F48073002B18D1434B1B68424A43F412
:1070AC0080731360FCF78CFC386108E0FCF788FCFB
:1070BC0002463B69D31A642B01D903236DE03A4B8A
:1070CC001B6803F48073002BF0D0364B1B6A03F45F
:1070DC004073FB60FB68002B2ED07B685B6803F46D
:1070EC004073FA689A4227D02E4B1B6A23F44073E4
:1070FC00FB602E4B01221A602C4B00221A60294A8D
:10710C00FB681362FB6803F00103002B14D0FCF73F
:10711C0057FC38610AE0FCF753FC02463B69D31A72
:10712C0041F28832934201D9032336E01D4B1B6A8E
:10713C0003F00203002BEED01A4B1B6A23F44072AF
:10714C007B685B68174913430B62FB7D012B05D1F0
:10715C00144BDB69134A23F08053D3617B681B68A3
:10716C0003F00203002B08D00E4B5B6823F4404263
:10717C007B689B680B4913434B607B681B6803F06F
:10718C001003002B08D0074B5B6823F480027B684C
:10719C00DB68044913434B60002318461837BD467F
:1071AC0080BD00BF0010024000700040400442420D
:1071BC0080B582B000AF78607B68002B01D10123D1
:1071CC0041E07B6893F83D30DBB2002B06D17B6845
:1071DC00002283F83C207868FBF720FB7B680222B6
:1071EC0083F83D207B681A687B6804331946104687
:1071FC0000F05CFA7B68012283F846207B68012250
:10720C0083F83E207B68012283F83F207B680122B3
:10721C0083F840207B68012283F841207B6801229F
:10722C0083F842207B68012283F843207B6801228B
:10723C0083F844207B68012283F845207B68012277
:10724C0083F83D20002318460837BD4680BD00005A
:10725C0080B485B000AF78607B6893F83D30DBB2CA
:10726C00012B01D001233AE07B68022283F83D20F8
:10727C007B681B68DA687B681B6842F00102DA6085
:10728C007B681B68184A93420ED07B681B68B3F16D
:10729C00804F09D07B681B68144A934204D07B68EA
:1072AC001B68134A934211D17B681B689B6803F0DF
:1072BC000703FB60FB68062B10D07B681B681A6801
:1072CC007B681B6842F001021A6007E07B681B6850
:1072DC001A687B681B6842F001021A60002318468A
:1072EC001437BD4680BC7047002C014000040040A0
:1072FC000008004080B584B000AF78607B681B68E4
:10730C00DB68FB607B681B681B69BB60BB6803F0B8
:10731C000203002B20D0FB6803F00203002B1BD0D0
:10732C007B681B686FF002021A617B6801221A7776
:10733C007B681B689B6903F00303002B03D0786800
:10734C0000F098F905E0786800F08BF9786800F0A7
:10735C009AF97B6800221A77BB6803F00403002BB0
:10736C0020D0FB6803F00403002B1BD07B681B6848
:10737C006FF004021A617B6802221A777B681B6823
:10738C009B6903F44073002B03D0786800F072F90A
:10739C0005E0786800F065F9786800F074F97B68AE
:1073AC0000221A77BB6803F00803002B20D0FB687F
:1073BC0003F00803002B1BD07B681B686FF00802DE
:1073CC001A617B6804221A777B681B68DB6903F0FF
:1073DC000303002B03D0786800F04CF905E07868C3
:1073EC0000F03FF9786800F04EF97B6800221A77BC
:1073FC00BB6803F01003002B20D0FB6803F01003D4
:10740C00002B1BD07B681B686FF010021A617B6825
:10741C0008221A777B681B68DB6903F44073002B26
:10742C0003D0786800F026F905E0786800F019F9C7
:10743C00786800F028F97B6800221A77BB6803F0A3
:10744C000103002B0CD0FB6803F00103002B07D0C9
:10745C007B681B686FF001021A617868FAF7FCFF11
:10746C00BB6803F08003002B0CD0FB6803F0800397
:10747C00002B07D07B681B686FF080021A6178685C
:10748C0000F07FFABB6803F04003002B0CD0FB68C4
:10749C0003F04003002B07D07B681B686FF04002A1
:1074AC001A61786800F0F8F8BB6803F02003002B31
:1074BC000CD0FB6803F02003002B07D07B681B6803
:1074CC006FF020021A61786800F052FA00BF103792
:1074DC00BD4680BD80B584B000AF786039600023B4
:1074EC00FB737B6893F83C30012B01D10223B4E091
:1074FC007B68012283F83C207B68022283F83D20C4
:10750C007B681B689B68BB60BB6823F07703BB6020
:10751C00BB6823F47F43BB607B681B68BA689A60C6
:10752C003B681B68B3F5005F3ED0B3F5005F00F21B
:10753C008780B3F5805F00F08680B3F5805F7FD8DD
:10754C00702B1AD0702B7BD8602B50D0602B77D837
:10755C00502B3CD0502B73D8402B58D0402B6FD88D
:10756C00302B64D0302B6BD8202B60D0202B67D8DD
:10757C00002B5CD0102B5AD062E07B6818683B68FB
:10758C0099683B685A683B68DB6800F074F97B6863
:10759C001B689B68BB60BB6843F07703BB607B6870
:1075AC001B68BA689A604FE07B6818683B689968FA
:1075BC003B685A683B68DB6800F05DF97B681B68C8
:1075CC009A687B681B6842F480429A603CE07B6856
:1075DC0018683B6859683B68DB681A4600F0D4F8B9
:1075EC007B681B685021184600F02BF92CE07B6857
:1075FC0018683B6859683B68DB681A4600F0F2F87B
:10760C007B681B686021184600F01BF91CE07B6846
:10761C0018683B6859683B68DB681A4600F0B4F898
:10762C007B681B684021184600F00BF90CE07B6866
:10763C001A683B681B681946104600F002F903E013
:10764C000123FB7300E000BF7B68012283F83D201F
:10765C007B68002283F83C20FB7B18461037BD4624
:10766C0080BD80B483B000AF786000BF0C37BD46DE
:10767C0080BC704780B483B000AF786000BF0C371B
:10768C00BD4680BC704780B483B000AF786000BF4B
:10769C000C37BD4680BC704780B483B000AF7860B7
:1076AC0000BF0C37BD4680BC7047000080B485B06D
:1076BC0000AF786039607B681B68FB607B682F4A81
:1076CC0093420BD07B68B3F1804F07D07B682C4A78
:1076DC00934203D07B682B4A934208D1FB6823F07A
:1076EC007003FB603B685B68FA681343FB607B6864
:1076FC00224A93420BD07B68B3F1804F07D07B6852
:10770C001F4A934203D07B681E4A934208D1FB6800
:10771C0023F44073FB603B68DB68FA681343FB603F
:10772C00FB6823F080023B685B691343FB607B685A
:10773C00FA681A603B689A687B68DA623B681A6878
:10774C007B689A627B680D4A934203D13B681A6945
:10775C007B681A637B6801225A617B681B6903F0A2
:10776C000103002B05D07B681B6923F001027B68A9
:10777C001A6100BF1437BD4680BC7047002C014015
:10778C00000400400008004080B487B000AFF860EF
:10779C00B9607A60FB681B6A7B61FB681B6A23F02B
:1077AC000102FB681A62FB689B693B613B6923F031
:1077BC00F0033B617B681B013A6913433B617B69B6
:1077CC0023F00A037B617A69BB6813437B61FB6816
:1077DC003A699A61FB687A691A6200BF1C37BD4628
:1077EC0080BC704780B487B000AFF860B9607A6035
:1077FC00FB681B6A7B61FB681B6A23F01002FB6849
:10780C001A62FB689B693B613B6923F470433B61E3
:10781C007B681B033A6913433B617B6923F0A0032C
:10782C007B61BB681B017A6913437B61FB683A6916
:10783C009A61FB687A691A6200BF1C37BD4680BC2E
:10784C00704780B485B000AF786039607B689B6806
:10785C00FB60FB6823F07003FB603A68FB68134322
:10786C0043F00703FB607B68FA689A6000BF14372B
:10787C00BD4680BC704780B487B000AFF860B9607B
:10788C007A603B60FB689B687B617B6923F47F4378
:10789C007B613B681A027B681A43BB6813437A69A5
:1078AC0013437B61FB687A699A6000BF1C37BD4645
:1078BC0080BC704780B485B000AF786039607B685D
:1078CC0093F83C30012B01D1022346E07B68012266
:1078DC0083F83C207B68022283F83D207B681B6880
:1078EC005B68FB607B681B689B68BB60FB6823F074
:1078FC007003FB603B681B68FA681343FB607B6892
:10790C001B68FA685A607B681B68164A93420ED053
:10791C007B681B68B3F1804F09D07B681B68124AE7
:10792C00934204D07B681B68104A93420CD1BB680D
:10793C0023F08003BB603B685B68BA681343BB6091
:10794C007B681B68BA689A607B68012283F83D20CB
:10795C007B68002283F83C20002318461437BD4670
:10796C0080BC7047002C014000040040000800401F
:10797C0080B483B000AF786000BF0C37BD4680BCCC
:10798C00704780B483B000AF786000BF0C37BD4641
:10799C0080BC704780B485B000AFF860384680E892
:1079AC000E00002318461437BD4680BC704780B4C7
:1079BC0085B000AF78607B680022A3F844204FF4B8
:1079CC003F43FB60FB689AB27B68A3F8402000231E
:1079DC0018461437BD4680BC704780B485B000AFE4
:1079EC0078604FF43F43FB607B68B3F840309AB249
:1079FC00FB689BB2DB439BB213409AB27B68A3F843
:107A0C004020002318461437BD4680BC704780B414
:107A1C0083B000AF78600B46FB70002318460C3720
:107A2C00BD4680BC704780B485B000AFF860384666
:107A3C0080E80E00FB680122A3F84020FB680022BE
:107A4C00A3F84020FB680022A3F84420FB68002226
:107A5C00A3F85020002318461437BD4680BC70474D
:107A6C0080B49DB000AF78603960002387F86F3028
:107A7C007A683B681B789B0013441B889BB223F4E9
:107A8C00EC4323F07003A7F86C303B68DB78032BD6
:107A9C001FD801A252F823F0B57A0008D17A000859
:107AAC00E77A0008C37A0008B7F86C3043F4007327
:107ABC00A7F86C3012E0B7F86C3043F4C063A7F849
:107ACC006C300BE0B7F86C3043F48063A7F86C3083
